:020000040000FA
:060000000A128A110C280F
:10000800FE00030EF1000A08F2000A128A11E82E17
:100018000A128A110F28F70183120313C801C901B4
:10002800CA01CB0183010A128A11402E83120313DD
:100038002D088039B2003208B7002D08B200320707
:10004800B3003308BD00AC1F2A282B282C283D14E8
:100058003D0803193028312840283D0A031D35285A
:1000680036283E280030AD000030AC000030AB0030
:100078000030AA00AC1748280030AD000030AC00B2
:100088000030AB000030AA0031088039B2003208D5
:10009800B7063108B2003207B3003308BC00B01FFE
:1000A8005628572858283C143C0803195C285D2812
:1000B8006C283C0A031D612862286A280030B100B8
:1000C8000030B0000030AF000030AE00B017742828
:1000D8000030B1000030B0000030AF000030AE009A
:1000E8003C080319782879287E283D08031D7D28B7
:1000F8007E2887280030AD000030AC000030AB000F
:100108000030AA007A2B2A08B2003208F30030081F
:100118000A128A118D260A128A117408831203138F
:10012800C3007308C2004208B200B301B401B501AC
:100138003508BB003408BA003308B9003208B800E3
:100148004308B200B301B401B5013508C100340851
:10015800C0003308BF003208BE002B08B2003208C6
:10016800F3002F080A128A118D260A128A117408C0
:1001780083120313C3007308C2004208B200B3011C
:10018800B401B5013208B807330803110318013E5A
:100198000319CF28B907340803110318013E0319BE
:1001A800D628BA07350803110318013E0319DD28BC
:1001B800BB074308B200B301B401B5013208BE075A
:1001C800330803110318013E0319EB28BF0734084D
:1001D80003110318013E0319F228C007350803115B
:1001E8000318013E0319F928C1072C08B200320888
:1001F800F3002E080A128A118D260A128A11740831
:1002080083120313C3007308C2004208B200B3018B
:10021800B401B5013208B807330803110318013EC9
:1002280003191729B907340803110318013E0319E4
:100238001E29BA07350803110318013E0319252999
:10024800BB074308B200B301B401B5013208BE07C9
:10025800330803110318013E03193329BF07340873
:1002680003110318013E03193A29C0073508031181
:100278000318013E03194129C1070830B2000310D1
:10028800B80DB90DBA0DBB0DB20B43292B08B2003E
:100298003208F3002E080A128A118D260A128A11D2
:1002A800740883120313C3007308C2004208B20023
:1002B8004308B300B401B5013208B8073308031185
:1002C8000318013E03196929B907340803110318F3
:1002D800013E03197029BA07350803110318013EB6
:1002E80003197729BB072A08B2003208F3002F0840
:1002F8000A128A118D260A128A11740883120313AE
:10030800C3007308C2004208B2004308B300B40136
:10031800B5013208B807330803110318013E031961
:100328009629B907340803110318013E03199D29BA
:10033800BA07350803110318013E0319A429BB079E
:100348000830B2000310B80DB90DBA0DBB0DB20BD1
:10035800A6292A08B2003208F3002E080A128A11C8
:100368008D260A128A11740883120313C3007308B6
:10037800C2004208B2004308B300B401B501320814
:10038800B807330803110318013E0319CC29B9072C
:10039800340803110318013E0319D329BA07350895
:1003A80003110318013E0319DA29BB072B08B20011
:1003B8003208F30030080A128A118D260A128A11AF
:1003C800740883120313C3007308C2004208B20002
:1003D8004308B300B401B5013208BE07330803115E
:1003E8000318013E0319F929BF073408031103183C
:1003F800013E0319002AC007350803110318013EFE
:100408000319072AC1072C08B2003208F3002F0885
:100418000A128A118D260A128A117408831203138C
:10042800C3007308C2004208B2004308B300B40115
:10043800B5013208BE07330803110318013E03193A
:10044800262ABF07340803110318013E03192D2A71
:10045800C007350803110318013E0319342AC107E0
:100468002C08B2003208F30030080A128A118D26CF
:100478000A128A11740883120313C3007308C20096
:100488004208B2004308B300B401B50108300310B4
:10049800B20DB30DB40DB50DFF3E031D4B2A320846
:1004A800BE07330803110318013E03195C2ABF076E
:1004B800340803110318013E0319632AC0073508DD
:1004C80003110318013E03196A2AC1073808B2004C
:1004D8003908B3003A08B4003B08B50018300310D7
:1004E800B50CB40CB30CB20CFF3E031D732A3208D2
:1004F800BE07330803110318013E0319842ABF07F6
:10050800340803110318013E03198B2AC007350864
:1005180003110318013E0319922AC1070830B200DB
:100528000310B80DB90DBA0DBB0DB20B942A3D08D6
:100538003C07B200B301B30D3208823EC200330853
:100548000318013EFF3EC300C62A0130B200031063
:10055800BE0DBF0DC00DC10DB20BAB2ABB1FB52A16
:10056800B62AB72A3E140130B2000310B80DB90DEF
:10057800BA0DBB0DB20BB92AFF30C2070318C30A64
:10058800FF30C307C01FC92ACA2AA92ABC01BB1F3A
:10059800CE2ACF2AEB2AFF303805B200FF303905C2
:1005A800B300FF303A05B4007F303B05B50035088D
:1005B8003404330432040319E22AE32AE62ABC018C
:1005C800BC0AEB2A3E1CE92AEA2AEB2AE32A3C0861
:1005D8000319EF2AF02A212B0130BE070030031837
:1005E8000130BF07003003180130C007003003187E
:1005F8000130C107411C012B022B212B3E08B20000
:100608003F08B3004008B4004108B5000130B60007
:10061800350DB50CB40CB30CB20CB60B0C2B35085D
:10062800C1003408C0003308BF003208BE000130E2
:10063800C2070318C30A0030C3074308803AFF0003
:1006480080307F02031D2A2BFF304202031C2D2B12
:100658002E2B392B7F3083120313C1008030C0004A
:100668000030BF000030BE006E2B83120313430816
:10067800803AFF0080307F02031D442B0130420284
:100688000318472B482B542B003083120313C10047
:100698000030C0000030BF000030BE00B7016E2B34
:1006A800831203134208B2003208BD00FF30BE05B2
:1006B800FF30BF057F30C0050030C1053D1C652BEC
:1006C800662B672BC0173D08B2000310320CB3002D
:1006D8003308C1003708B2003208C1044108AD0030
:1006E8004008AC003F08AB003E08AA000800F5002F
:1006F800831203131F083F3940389F0083160313E2
:100708009F01202C0514831603170814C330831285
:1007180003139F05542C851483160317881483121A
:1007280003131F08C33904389F00542C051583167A
:1007380003170815831203131F08C33908389F00CD
:10074800542C8515831603178815831203131F0865
:10075800C3390C389F00542C8516831603170816C6
:10076800831203131F08C33910389F00542C09142F
:10077800831603178816831203131F08C339143806
:100788009F00542C89148316031708178312031328
:100798001F08C33918389F00542C091583160317EE
:1007A8008817831203131F08C3391C389F00542C61
:1007B8000615831603170914831203131F08C33978
:1007C80020389F00542C861583160317891483122A
:1007D80003131F08C33924389F00542C861483162A
:1007E80003170915831203131F08C33928389F00FC
:1007F800542C0616831603178915831203131F0832
:10080800C3392C389F00542C061483160317091675
:10081800831203131F08C33930389F00542C8616DF
:10082800831603178916831203131F08C339343834
:100838009F00542C0030642C7508F300F4017408F0
:10084800003A0319282C1E2C7308003A0319862B2A
:10085800013A03198F2B033A03199A2B013A03190A
:10086800A52B073A0319B02B013A0319BB2B033AFE
:100878000319C62B013A0319D12B0F3A0319DC2BA4
:10088800013A0319E72B033A0319F22B013A03192A
:10089800FD2B073A0319082C013A0319132C1E2CB7
:1008A8001F14A630F300F30B572C00008312031318
:1008B8009F14602C1E08642C9F18632C642C5E2CDB
:1008C800080083120313A400240803196C2C6D2C50
:1008D800812CF61F702C712C812C7309A6007409C9
:1008E800A7007509A8007609A900A60A0319A70A8E
:1008F8000319A80A0319A90A892C7608A9007508FA
:10090800A8007408A7007308A60076087504740484
:100918007304031D902C912C9A2C0030F6000030A3
:10092800F5000030F4000030F300202D9630A000D0
:100938002008A500AC2C0130A0002008A507013034
:100948000310A90CA80CA70CA60CFF3E031DA42C91
:10095800FE302905031DB12CB22C9F2CCE2C013062
:10096800A0002008A5070130A607003003180130B1
:10097800A707003003180130A8070030031801301A
:10098800A90701300310A90CA80CA70CA60CFF3E60
:10099800031DC62CFF302905031DD32CD42CB32CE2
:1009A800E02C0130A5020130A0000310A60DA70D10
:1009B800A80DA90DA00BD92CA81BE32CE42CEA2C1C
:1009C800023025020318E92CEA2CD52C2518ED2C29
:1009D800EE2CF62CFF30A605FF30A7057F30A805C2
:1009E800FF30A9050310A50C2508A000A101A2014C
:1009F800A30118300310A00DA10DA20DA30DFF3EF9
:100A0800031DFE2C2008A6042108A7042208A80418
:100A18002308A90424080319122D132D182DF61FD5
:100A2800162D172D182DA9172908F6002808F500E6
:100A38002708F4002608F300080000308312031387
:100A48002005F30000302105F40080302205F50070
:100A58007F302305F6007608750474047304031DBB
:100A6800362D372D3F2D0030A3000030A200003076
:100A7800A1000030A00000302405F3000030250557
:100A8800F40080302605F5007F302705F60076084B
:100A9800750474047304031D522D532D5B2D00300F
:100AA800A7000030A6000030A5000030A400A31F56
:100AB8005E2D5F2D832D0030F3000030F4000030F0
:100AC800F5008030F6002008F3022108031C210FEE
:100AD8006E2D6F2DF4022208031C220F742D752D24
:100AE800F5022308031C230F7A2D7B2DF6027608C6
:100AF800A3007508A2007408A1007308A000A71F2E
:100B0800862D872DAB2D0030F3000030F400003027
:100B1800F5008030F6002408F3022508031C250F91
:100B2800962D972DF4022608031C260F9C2D9D2D2B
:100B3800F5022708031C270FA22DA32DF60276081D
:100B4800A7007508A6007408A5007308A4008030E3
:100B5800A3068030A70627082302031DBD2D2608FB
:100B68002202031DBD2D25082102031DBD2D2408C9
:100B780020020318C02DC12DC32D0310C42D03144A
:100B88000800831203134B08A3004A08A20049086F
:100B9800A1004808A0004130A700C830A6000030D6
:100BA800A5000030A4000A128A1121250A128A1110
:100BB8000318DF2DE02DE52D013083120313880083
:100BC8003F2E413083120313A300C830A200003027
:100BD800A1000030A0004B08A7004A08A600490859
:100BE800A5004808A4000A128A1121250A128A11B0
:100BF8000318FF2D002E202E831203134B08A30089
:100C08004A08A2004908A1004808A0004230A700ED
:100C18001030A6000030A5000030A4000A128A1186
:100C280021250A128A1103181A2E1B2E202E023093
:100C38008312031388003F2E423083120313A3004C
:100C48001030A2000030A1000030A0004B08A7001F
:100C58004A08A6004908A5004808A4000A128A11F3
:100C680021250A128A1103183A2E3B2E3F2E0430F2
:100C780083120313880008000A128A11B6260A1282
:100C88008A1108300A128A117B230A128A118312E8
:100C98000313C4004408F7003B30AD00C130AC007A
:100CA8005430AB00CA30AA007708C400C501C60199
:100CB800C7014708F6004608F5004508F40044084F
:100CC800F30001300A128A1165240A128A11760883
:100CD80083120313B1007508B0007408AF007308DD
:100CE800AE000A128A111A200A128A1183120313FB
:100CF8002D08CB002C08CA002B08C9002A08C800F8
:100D08000A128A11C5250A128A11452E0A128A1159
:100D18000C2883120313A400A001A1017308F50095
:100D2800F6017508A2007608A300241C9C2E9D2EAF
:100D3800A32E2208A0070318A10A2308A10701303F
:100D48000310A20DA30DFF3E031DA42E0310A40C37
:100D58002408031DB02EB12E992E2108F400200876
:100D6800F30008008316031788018901831603130B
:100D7800860188018312031388018B170B178C11C6
:100D8800831603138C158516F301F401F50124303D
:100D98000A128A11D2260A128A110800F60083164E
:100DA80003138712761DD92EDA2EDE2E75089400CD
:100DB8008715E22E73087504940087117608740469
:100DC8008312031394000800831203138C1DED2E65
:100DD800EE2EF72E77080A128A11FE260A128A11B9
:100DE800831203138C1172088A00710E8300FE0EA1
:100DF8007E0E0900F00070088312031393000800A8
:04400E00D620FF3F7A
:00000001FF
