:020000040000FA
:100000000A128A11EC2F00300A168A15F3260A12FA
:100010008A1101300A168A15F3260A128A1108007D
:10002000831203134808CE004908CF004A08D000C5
:1000300003104F0D500DD1005108D4004B08CE00D5
:100040004C08CF004D08D00003104F0D500DD100CB
:100050005108D300540803192E282F283F2853088D
:10006000540203183428352846285308CE00540873
:10007000CE0219304E02031C3E283F2846284B086A
:10008000C8004C08C9004D08CA0045295308031987
:100090004A284B285B28540853020318502851283B
:1000A0005C285408CE005308CE0219304E02031CBF
:1000B0005A285B285C2845290630CE004E08D2001D
:1000C000CA1F632864286528D217CD1F68286928AD
:1000D0006A285217C917FF30C805FF30C90500301C
:1000E000CA05CC17FF30CB05FF30CC050030CD055D
:1000F0005308540203187D287E28AA2801300310D3
:10010000CB0DCC0DCD0DFF3E031D7F280130D3025A
:100110005308540603198D288E28A3280130D202D3
:1001200052080739031D952896287E28A3280130F8
:100130000310CA0CC90CC80CFF3E031D98280130DF
:10014000CE004E08D40754085306031DA828A9283A
:100150009728DB28540853020318AF28B028DB285F
:1001600001300310C80DC90DCA0DFF3E031DB12893
:100170000130D402530854060319BF28C028D528DB
:100180000130D20252080739031DC728C828B028F9
:10019000D52801300310CD0CCC0CCB0CFF3E031D39
:1001A000CA280130CE004E08D30754085306031D59
:1001B000DA28DB28C928D21FDE28DF28EF28FF3005
:1001C000C806FF30C906FF30CA060130C807003034
:1001D00003180130C907003003180130CA07521F45
:1001E000F228F3280329FF30CB06FF30CC06FF307E
:1001F000CD060130CB07003003180130CC070030AA
:1002000003180130CD07D2014808CB074908031174
:100210000318490A03190D29CC074A0803110318CA
:100220004A0A03191429CD07CD1F172918292A298D
:10023000FF30CB06FF30CC06FF30CD060130CB07B8
:10024000003003180130CC07003003180130CD070F
:10025000D201D20A4B08F0004C08F1004D08F20020
:100260005408CE004E08F3005208CF004F08F400A7
:100270000A168A112A240A128A117008831203139B
:10028000C8007108C9007208CA0008008316031369
:1002900034083304320403194E294F29DF29320868
:1002A00083120313C100831603133308831203134D
:1002B000C20083160313340883120313C3000A1603
:1002C0008A11A6240A128A118312031344084304D4
:1002D00042044104031D6D296E29DF29831603138F
:1002E0003108803AFF0080307F02031D79290230F7
:1002F0003002031C7C297D29DF298316031328087B
:10030000F0002908F1002A08F2007030F30089306B
:10031000F4004030F5000A168A1110210A128A11E1
:100320000318932994299D29F73083160313B007E6
:100330000318B10AFF30B107A529F830831603135B
:10034000B0070318B10AFF30B10730080A128A1546
:100350007D220A128A1183120313380883160313AD
:10036000A80083120313390883160313A90083120C
:1003700003133A0883160313AA003208F000330867
:10038000F1003408F2002808F3002908F4002A08D4
:10039000F5000A168A1132250A128A11730883168B
:1003A0000313AF007208AE007108AD007008AC0016
:1003B0000030B2000030B3000030B4004E2A831683
:1003C0000313320883120313C10083160313330887
:1003D00083120313C200831603133408831203131A
:1003E000C3000A168A11A6240A128A118312031363
:1003F000440883160313AF008312031343088316C4
:100400000313AE0083120313420883160313AD00D7
:1004100083120313410883160313AC002F08FB005B
:100420002E08FA002D08F9002C08F8000A168A1583
:10043000D1270A128A11780883120313D50079088C
:10044000D6007A08D70083160313320883120313E9
:10045000D80083160313330883120313D9008316BD
:100460000313340883120313DA000A168A155C2773
:100470000A128A1183120313550883160313B2005C
:1004800083120313560883160313B3008312031356
:10049000570883160313B400B001B101B801B80ABC
:1004A000380883120313E10001300310E10DFF3E11
:1004B000031D552A0310610D4F3E84000A168A1150
:1004C0000A200A128A11E2000A168A110A200A1268
:1004D0008A11E3000A168A110A200A128A11E4001E
:1004E0000A168A110A200A128A11E5006508831685
:1004F00003132F02031D922A831203136408831629
:1005000003132E02031D922A83120313630883161A
:1005100003132D02031D922A83120313620883160C
:1005200003132C020318952A962A972AA52A01302C
:1005300083120313E100610883160313B8070A301E
:100540003806031DA42AA52A502A38083607831224
:100550000313E1008316031337080318370A8312C5
:100560000313E20083160313300883120313610799
:10057000E3008316031331080318310A83120313AF
:100580006207E400630883160313A60283120313B1
:10059000640883160313031CA703A7023608370455
:1005A0000319D32AD42ADA2AFF30A6070318A70A88
:1005B000FF30A7070330240583120313E100003046
:1005C00083160313250583120313E20061086204F6
:1005D0000319EB2AEC2A092BFF3083160313A60715
:1005E0000318A70AFF30A707092B20308312031333
:1005F000E100831603133508840083120313610896
:10060000831380000130E100610883160313B507EE
:10061000EC2A831603132708803AFF0080307F02FC
:10062000031D142B013026020318172B182BF52A53
:10063000033083160313240583120313E1000030F3
:1006400083160313250583120313E2006108620475
:1006500003192B2B2C2BD02B2D30E10083160313E9
:10066000350884008312031361088313800001306E
:10067000E100610883160313B507D02B38088312F5
:100680000313E10001300310E10DFF3E031D432B76
:100690000310610D4F3E84000A168A110A200A12C7
:1006A0008A11F0000A168A110A200A128A11F10032
:1006B0000A168A110A200A128A11F2000A168A11F1
:1006C0000A200A128A11F300831603132F08F70079
:1006D0002E08F6002D08F5002C08F4000A168A11E1
:1006E0005B230A128A11730883160313AB00720886
:1006F000AA007108A9007008A80000308312031333
:10070000A3000030A2000030A1000A30A000831630
:1007100003132B0883120313A700831603132A085D
:1007200083120313A60083160313290883120313ED
:10073000A50083160313280883120313A4000A16C6
:100740008A1146220A128A11831203132308831680
:100750000313AB0083120313220883160313AA00AA
:1007600083120313210883160313A90083120313B2
:10077000200883160313A8002808303E83120313B1
:10078000E100831603133508840083120313610804
:10079000831380000130E100610883160313B5075D
:1007A000013083160313B802380A031DD82BD92B46
:1007B0003E2BF32B303083120313E1008316031317
:1007C000350884008312031361088313800001300D
:1007D000E100610883160313B507FF30B007031863
:1007E000B10AFF30B1073108803AFF0080307F0244
:1007F000031DFC2B013030020318FF2B002CDA2BD9
:10080000831603133708803AFF0080307F02031DF0
:100810000B2C09303602031C0E2C0F2C182C083020
:1008200083120313E100610883160313B800222C1E
:1008300083160313360883120313E100610883163D
:100840000313B800380883120313E100E2016108C2
:1008500083160313B602831203136208831603136D
:10086000031CB703B70238080319372C382C4B2C5C
:100870002E3083120313E10083160313350884001E
:10088000831203136108831380000130E1006108C3
:1008900083160313B50738080A128A157D220A1237
:1008A0008A1183120313380883160313A0008312DE
:1008B0000313390883160313A100831203133A08A4
:1008C00083160313A200200883120313AB008316C0
:1008D0000313210883120313AC00831603132208A9
:1008E00083120313AD00831603133208831203131C
:1008F000A80083160313330883120313A900831679
:100900000313340883120313AA000A168A11EF2571
:100910000A128A11831203132808C1002908C20091
:100920002A08C3000A168A11A6240A128A11831201
:100930000313440883160313AF0083120313430801
:1009400083160313AE0083120313420883160313A6
:10095000AD0083120313410883160313AC009D2DD1
:10096000380883120313E10001300310E10DFF3E4C
:10097000031DB52C0310610D4F3E84000A168A1129
:100980000A200A128A11F0000A168A110A200A1295
:100990008A11F1000A168A110A200A128A11F2003D
:1009A0000A168A110A200A128A11F3008316031309
:1009B0002F08F7002E08F6002D08F5002C08F4008B
:1009C0000A168A115B230A128A117308831603130D
:1009D000AB007208AA007108A9007008A8000030D6
:1009E00083120313A3000030A2000030A1000A30DC
:1009F000A000831603132B0883120313A70083168A
:100A000003132A0883120313A6008316031329086D
:100A100083120313A50083160313280883120313FC
:100A2000A4000A168A1146220A128A11831203139D
:100A3000230883160313AB008312031322088316C3
:100A40000313AA0083120313210883160313A900BA
:100A500083120313200883160313A8002808303ECE
:100A600083120313E10083160313350884008312F5
:100A700003136108831380000130E10061088316CD
:100A80000313B507380883120313E1000130031084
:100A9000E10DFF3E031D472D0310610D4F3E840005
:100AA0000A168A110A200A128A11A0000A168A114F
:100AB0000A200A128A11A1000A168A110A200A12B3
:100AC0008A11A2000A168A110A200A128A11A300AA
:100AD000831603132F0883120313A700831603132F
:100AE0002E0883120313A600831603132D08831206
:100AF0000313A500831603132C0883120313A40009
:100B00000A168A1146220A128A1183120313230835
:100B100083160313AF0083120313220883160313F3
:100B2000AE0083120313210883160313AD00831252
:100B30000313200883160313AC000130B802380AEF
:100B4000031DA32DA42DB02CBE2D30308312031312
:100B5000E100831603133508840083120313610830
:100B6000831380000130E100610883160313B50789
:100B7000FF30B6070318B70AFF30B7073608370447
:100B8000031DC32DC42DA52DCE2F831603132308BB
:100B900084008313000883120313E100840A000811
:100BA000E200610883160313AC008312031362088A
:100BB00083160313AD000030AD1BFF30AE00AF0055
:100BC000023083120313E100610883160313A307A5
:100BD000AF1FEB2DEC2DFB2D0330A4040030A5043A
:100BE000AC09AD09AE09AF09AC0A0319AD0A031986
:100BF000AE0A0319AF0A36083704031D002E012E72
:100C00000F2E2F082E042D042C04031D082E092E50
:100C10000F2E0130B6070318B70A0030B707B80126
:100C2000B80A380883120313E10001300310E10D04
:100C3000FF3E031D162E0310610D4F3E84000A1661
:100C40008A110A200A128A11E2000A168A110A2061
:100C50000A128A11E3000A168A110A200A128A115E
:100C6000E4000A168A110A200A128A11E5006508B2
:100C7000831603132F02031D532E831203136408DC
:100C8000831603132E02031D532E831203136308CE
:100C9000831603132D02031D532E831203136208C0
:100CA000831603132C020318562E572E582E662E29
:100CB000013083120313E100610883160313B807A0
:100CC0000A303806031D652E662E112E3708803A2D
:100CD000803C031D6D2E360838020318702E712ECD
:100CE0007C2E83160313360883120313E100610878
:100CF00083160313B800A02E831603133708803A17
:100D000083120313E10080306102031D8B2E8316D2
:100D100003133808360203188E2E8F2EA02E83164A
:100D20000313380883120313E100E20161088316FC
:100D30000313B60083120313620883160313B7006C
:100D400083160313260827040319A72EA82EC22EE4
:100D50000330240583120313E100003083160313CC
:100D6000250583120313E200610862040319B92EFA
:100D7000BA2EC22EFF3083160313A6070318A70A44
:100D8000FF30A70783160313251FC72EC82EEB2E8F
:100D90003708803A83120313E100831603132708F0
:100DA000803A831203136102031DDA2E83160313A4
:100DB000260836020318DD2EDE2EE72E83160313D7
:100DC0003608A6023708031CA703A702EB2E8316DA
:100DD0000313A601A7012708803A803C031DF22EC9
:100DE000260838020318F52EF62E0A2F8316031351
:100DF000380883120313E100E2016108831603132C
:100E0000A60283120313620883160313031CA703AD
:100E1000A7020E2F83160313A601A7012608270495
:100E20000319132F142F332F203083120313E100E3
:100E30008316031335088400831203136108831398
:100E400080000130E100610883160313B507FF300D
:100E5000A6070318A70AFF30A70726082704031DC3
:100E6000322F332F142F0330240583120313E10094
:100E7000003083160313250583120313E200610873
:100E800062040319442F452FBE2F2D30E100831635
:100E90000313350884008312031361088313800051
:100EA0000130E100610883160313B507BE2F00303F
:100EB00083120313A3000030A2000030A1000A3007
:100EC000A00083160313360883120313E1000130D8
:100ED0000310E10DFF3E031D682F0310610D4F3E0F
:100EE00084000A168A110A200A128A11F0000A16D2
:100EF0008A110A200A128A11F1000A168A110A20A0
:100F00000A128A11F2000A168A110A200A128A119C
:100F1000F300831603132F08F7002E08F6002D08A0
:100F2000F5002C08F4000A168A115B230A128A11B4
:100F3000730883120313A7007208A6007108A500A6
:100F40007008A4000A168A1146220A128A11831216
:100F500003132008303EE200620883160313B80032
:100F6000380883120313E100831603133508840045
:100F700083120313610883138000502FFF30831600
:100F80000313B6070318B70AFF30B707360A031D65
:100F9000CD2F370A031DCD2FCE2F572F01308312AF
:100FA000DB07FF305B0784000A168A110A200A1249
:100FB0008A11E100610883160313B8003808031D85
:100FC000E22FE52F0A128A15362D831603133508F2
:100FD000840083138001080083120313EA01EB01EC
:100FE000EC01ED01EE018313B9308400CD300A1617
:100FF0008A155F260A128A1183010A128A1511289E
:101000000C308316031399000800F00083160313B5
:10101000981C0B280C2806287008831203139900CB
:1010200008000A168A15D5260A128A150A128A1588
:1010300000200A128A150A168A1570260A128A15C5
:101040000A168A1557260A128A150A168A11F522D7
:101050000A128A150A128A1103200A128A150A1620
:101060008A11DE200A128A150A168A11AC200A1289
:101070008A150A128A1103200A128A15F401F40A49
:1010800001300A168A1513270A128A157730F300E1
:101090008030F4000A168A11C0210A128A15903095
:1010A00083120313A800A030A9003C30AA006D08E9
:1010B000E700E8016708F8006808F9000A168A15D1
:1010C00037270A128A15780883120313AB007908B0
:1010D000AC007A08AD000A168A11EF250A128A15AB
:1010E000831203132808EA002908EB002A08EC0001
:1010F0008530E7006708DB006A08DC006B08DD006C
:101100006C08DE006E08E800E9016808DF00690885
:10111000E000B9300A128A1528250A128A15F4014E
:10112000F40A02300A168A1513270A128A15B930F2
:10113000F3000030F4000A168A11C0210A128A1541
:101140007830F1008030F2000A168A15A6270A12BC
:101150008A150D300A128A1505200A128A150A30DE
:101160000A128A1505200A128A15B930F1000030DA
:10117000F2000A168A15A6270A128A150D300A12DD
:101180008A1505200A128A150A300A128A150520C6
:101190000A128A15063083120313E9001330E8009F
:1011A000AD30E700E70BD228E80BD228E90BD228B4
:1011B0002F280A128A11002883120313C7006E30E9
:1011C0004702031CE428E528BC290330BB003B0888
:1011D000A4004708BC00BD013C08F2003D08F30034
:1011E0006430F0000030F1000A168A1148210A121A
:1011F0008A157108F9007008F8000A30F60000300E
:10120000F7000A168A1102220A128A1576080A16AF
:101210008A15A2260A128A15433E84000A168A11EC
:101220000A200A128A1583120313A8000A168A11CB
:101230000A200A128A15A9000A168A110A200A121F
:101240008A15AA000330BE003E08A4004708BF006C
:10125000C0013F08F8004008F9006430F600003093
:10126000F7000A168A1102220A128A1576080A164F
:101270008A15A2260A128A155E3E84000A168A1171
:101280000A200A128A1583120313AB000A168A1168
:101290000A200A128A15AC000A168A110A200A12BC
:1012A0008A15AD000A168A11EF250A128A158312D3
:1012B00003132808C4002908C5002A08C600033003
:1012C000BB003B08A4004708BC00BD013C08F2007D
:1012D0003D08F3000A30F0000030F1000A168A11D0
:1012E00048210A128A1570080A168A15A2260A12BF
:1012F0008A15283E84000A168A110A200A128A15C5
:1013000083120313A8000A168A110A200A128A15EA
:10131000A9000A168A110A200A128A15AA0044088E
:10132000AB004508AC004608AD000A168A11EF254F
:101330000A128A15831203132808C1002908C20063
:101340002A08C3000030A8000030A9003F30AA00DE
:101350004108AB004208AC004308AD000A168A11F0
:10136000EF250A128A15831203132808B8002908EA
:10137000B9002A08BA007C2A0B304702031CC12995
:10138000C229492A0330BB003B08A4004708BC001F
:10139000BD013C08F2003D08F3000A30F0000030C7
:1013A000F1000A168A1148210A128A1570080A16D5
:1013B0008A15A2260A128A15283E84000A168A1166
:1013C0000A200A128A1583120313A8000A168A112A
:1013D0000A200A128A15A9000A168A110A200A127E
:1013E0008A15AA000330BE003E08A4004708BF00CB
:1013F000C0013F08F8004008F9000A30F60000304C
:10140000F7000A168A1102220A128A1576080A16AD
:101410008A15A2260A128A15433E84000A168A11EA
:101420000A200A128A1583120313AB000A168A11C6
:101430000A200A128A15AC000A168A110A200A121A
:101440008A15AD000A168A11EF250A128A15831231
:1014500003132808C4002908C5002A08C600003064
:10146000A8000030A9003F30AA004408AB0045089E
:10147000AC004608AD000A168A11EF250A128A153B
:10148000831203132808B8002908B9002A08BA00F3
:101490007C2A0030A8000030A9003F30AA000330A9
:1014A000BB003B08A40047080A168A15A2260A12A8
:1014B0008A15283E84000A168A110A200A128A1503
:1014C00083120313AB000A168A110A200A128A1526
:1014D000AC000A168A110A200A128A15AD000A16F3
:1014E0008A11EF250A128A15831203132808B800FF
:1014F0002908B9002A08BA00080083120313C000A3
:10150000C01F832A842AD72BC009C00A4008803A0A
:10151000123E031C8C2A8D2A452B0330BB003B084E
:10152000A4004008F200F301F21BF3036430F00062
:101530000030F1000A168A119C220A128A157108DD
:10154000FA007008F9000A30F7000030F8000A16B7
:101550008A11C1230A128A1577080A168A15A2264B
:101560000A128A15433E84000A168A110A200A12BA
:101570008A1583120313A8000A168A110A200A1278
:101580008A15A9000A168A110A200A128A15AA00C9
:101590000330BC003C08A4004008F900FA01F91B24
:1015A000FA036430F7000030F8000A168A11C123EC
:1015B0000A128A1577080A168A15A2260A128A15AF
:1015C0005E3E84000A168A110A200A128A158312C6
:1015D0000313AB000A168A110A200A128A15AC00FE
:1015E0000A168A110A200A128A15AD000A168A11F3
:1015F000EF250A128A15831203132808BD00290853
:10160000BE002A08BF000330BB003B08A40040080E
:10161000F200F301F21BF3030A30F0000030F10096
:101620000A168A119C220A128A1570080A168A154F
:10163000A2260A128A15283E84000A168A110A2058
:101640000A128A1583120313A8000A168A110A20A7
:101650000A128A15A9000A168A110A200A128A1586
:10166000AA003D08AB003E08AC003F08AD000A16DA
:101670008A11EF250A128A15831203132808B8006D
:101680002908B9002A08BA00272D4008803A753E7B
:10169000031C4B2B4C2BB62B0330BB003B08A40088
:1016A0004008F200F301F21BF3030A30F0000030AF
:1016B000F1000A168A119C220A128A1570080A166D
:1016C0008A15A2260A128A15283E84000A168A1153
:1016D0000A200A128A1583120313A8000A168A1117
:1016E0000A200A128A15A9000A168A110A200A126B
:1016F0008A15AA000330BC003C08A4004008F90089
:10170000FA01F91BFA030A30F7000030F8000A1654
:101710008A11C1230A128A1577080A168A15A22689
:101720000A128A15433E84000A168A110A200A12F8
:101730008A1583120313AB000A168A110A200A12B3
:101740008A15AC000A168A110A200A128A15AD0001
:101750000A168A11EF250A128A1583120313280824
:10176000B8002908B9002A08BA00272D0330BB00A9
:101770003B08A40040080A168A15A2260A128A15F8
:10178000283E84000A168A110A200A128A1583123A
:101790000313B8000A168A110A200A128A15B90022
:1017A0000A168A110A200A128A15BA00272D400843
:1017B000803A123E031CDD2BDE2B962C0330BB003F
:1017C0003B08A4004008F200F301F21BF30364306D
:1017D000F0000030F1000A168A119C220A128A15C4
:1017E0007108FA007008F9000A30F7000030F800BC
:1017F0000A168A11C1230A128A1577080A168A1551
:10180000A2260A128A151C3E84000A168A110A2092
:101810000A128A1583120313A8000A168A110A20D5
:101820000A128A15A9000A168A110A200A128A15B4
:10183000AA000330BC003C08A4004008F900FA01EB
:10184000F91BFA036430F7000030F8000A168A1119
:10185000C1230A128A1577080A168A15A2260A12C7
:101860008A15373E84000A168A110A200A128A1540
:1018700083120313AB000A168A110A200A128A1572
:10188000AC000A168A110A200A128A15AD000A163F
:101890008A11EF250A128A15831203132808BD0046
:1018A0002908BE002A08BF000330BB003B08A40083
:1018B0004008F200F301F21BF3030A30F00000309D
:1018C000F1000A168A119C220A128A1570080A165B
:1018D0008A15A2260A128A15013E84000A168A1168
:1018E0000A200A128A1583120313A8000A168A1105
:1018F0000A200A128A15A9000A168A110A200A1259
:101900008A15AA003D08AB003E08AC003F08AD00B8
:101910000A168A11EF250A128A1583120313280862
:10192000B8002908B9002A08BA00272D4008803AD3
:10193000753E031C9C2C9D2C072D0330BB003B08DF
:10194000A4004008F200F301F21BF3030A30F00098
:101950000030F1000A168A119C220A128A157008BA
:101960000A168A15A2260A128A15013E84000A1652
:101970008A110A200A128A1583120313A8000A1674
:101980008A110A200A128A15A9000A168A110A2049
:101990000A128A15AA000330BC003C08A4004008C3
:1019A000F900FA01F91BFA030A30F7000030F800D9
:1019B0000A168A11C1230A128A1577080A168A158F
:1019C000A2260A128A151C3E84000A168A110A20D1
:1019D0000A128A1583120313AB000A168A110A2011
:1019E0000A128A15AC000A168A110A200A128A15F0
:1019F000AD000A168A11EF250A128A158312031305
:101A00002808B8002908B9002A08BA00272D033091
:101A1000BB003B08A40040080A168A15A2260A1239
:101A20008A15013E84000A168A110A200A128A15B4
:101A300083120313B8000A168A110A200A128A15A3
:101A4000B9000A168A110A200A128A15BA0008007B
:101A500083160313B5005C3083120313E1006108A1
:101A600083160313A3000A128A11CE2F25303806DD
:101A700003193B2D3C2D502D380883120313E10030
:101A8000831603133508840083120313610883133C
:101A900080000130E100610883160313B507332D80
:101AA000A601A701A401A501831203135B0884000A
:101AB0000A168A110A200A128A150A168A157A2627
:101AC0000A128A15031C652D662DB02D831603138B
:101AD000A601A7010A30F0000030F10083160313BD
:101AE0002708F3002608F2000A168A1581270A1231
:101AF0008A15710883160313A7007008A6008312C5
:101B000003135B0884000A168A110A200A128A1538
:101B1000D03EE100FF3003180030E2006108831678
:101B20000313A6070318A70A831203136208831678
:101B30000313A707013083120313E1006108DB07D9
:101B40005B0884000A168A110A200A128A150A16EE
:101B50008A157A260A128A150318AF2DB02D6A2D20
:101B6000831203135B0884000A168A110A200A12E2
:101B70008A152E3A031DBD2DBE2D142E8316031378
:101B80002517013083120313E1006108DB07831678
:101B90000313B601B701022E0A30F0000030F10045
:101BA000831603133708F3003608F2000A168A1565
:101BB00081270A128A15710883160313B70070086B
:101BC000B600831203135B0884000A168A110A20E8
:101BD0000A128A15D03EE100FF3003180030E200FF
:101BE000610883160313B6070318B70A8312031399
:101BF000620883160313B707013083120313E10051
:101C00006108DB0783125B0884000A168A110A2028
:101C10000A128A150A168A157A260A128A150318D4
:101C2000122E132ECC2D1E2E83160313B601B701D0
:101C300025161E2E831603132515442E01308312FC
:101C40000313DB07FF305B0784000A168A110A20A2
:101C50000A128A1583160313B80083120313E100D6
:101C6000E2016208003A0319362E332D6108003A6A
:101C70000319FD2F643A0319442E023A03191A2E50
:101C80000F3A0319442E332D003083160313240515
:101C900083120313E1000730831603132505831213
:101CA0000313E200610862040319572E5A2E0A1228
:101CB0008A11C52D83160313251E5F2E602E642EF8
:101CC0000630B6000030B7002308840083130008F4
:101CD000B200840A0008B300840A0008B40003308C
:101CE00083120313E100610883160313A30732086C
:101CF000F0003308F1003408F2000030F300003047
:101D0000F4000030F5000A168A1110210A128A1513
:101D100003188B2E8C2EA52E831603133208F00089
:101D20003308F1003408F2000A168A11A2200A12C0
:101D30008A15700883160313B2007108B300720885
:101D4000B4000330A4040030A50483160313B001CB
:101D5000B1013408330432040319AF2EB02EA22F80
:101D6000B23084008313000883120313E100840A55
:101D70000008E200840A0008E300840A0008E40086
:101D80000F300310E40CE30CE20CE10CFF3E031DEA
:101D9000C12EFF306105E50000306205E6006508F0
:101DA000823E83160313B0008312031366080318E0
:101DB000013EFF3E83160313B100FF30B007031846
:101DC000B10AFF30B1070330F0000030F1003108F4
:101DD000F3003008F2000A168A1581270A128A15C4
:101DE000710883160313B1007008B0000A30F700C1
:101DF0000030F8003108FA003008F9000A168A119C
:101E0000C1230A128A15780883160313B1007708D4
:101E1000B000B11F0C2F0D2F132FFF30B007031888
:101E2000B10AFF30B1073003FF3A0A128A157D224A
:101E30000A128A1583120313380883160313A800A5
:101E400083120313390883160313A90083120313A3
:101E50003A0883160313AA00320883120313A8005A
:101E600083160313330883120313A9008316031385
:101E7000340883120313AA0083160313280883125D
:101E80000313AB0083160313290883120313AC005A
:101E9000831603132A0883120313AD000A168A114E
:101EA000EF250A128A1583120313280883160313D9
:101EB000A80083120313290883160313A9008312B1
:101EC00003132A0883160313AA002808F000290820
:101ED000F1002A08F2000030F3008030F4003F30B7
:101EE000F5000A168A1110210A128A150318792F93
:101EF0007A2F832FFF3083160313B0070318B10A1C
:101F0000FF30B107A22F831603132808F000290819
:101F1000F1002A08F2000030F3002030F4004130D4
:101F2000F5000A168A1110210A128A15031C992F2E
:101F30009A2FA22F013083160313B0070318B10A9A
:101F40000030B107831603133708803AFF00803052
:101F50007F02031DAD2F0D3036020318B02FB12FB5
:101F6000EA2F8316031336080A128A15DC200A1298
:101F70008A15831203133808C8003908C9003A08C3
:101F8000CA0083160313320883120313CB0083168F
:101F90000313330883120313CC008316031334088E
:101FA00083120313CD000A128A1110200A128A1517
:101FB00083120313480883160313B200831203131A
:101FC000490883160313B300831203134A088316C8
:101FD0000313B400831603133108803AFF008030E6
:101FE0007F02031DF52F0A3030020318FA2F0A1260
:101FF0008A1146290A128A117D290A128A11E52FAF
:10200000FF1B0A2883137F1883170008840A03190B
:10201000FF0A080010308A000408840A820700348E
:10202000003480343F340034203441340034C83428
:10203000423400347A34443440341C34463450340E
:10204000C3344734243474344934973418344B340B
:10205000BC34BE344C346B346E344E3403341534DB
:1020600050347934AD346034F3344934713400344D
:1020700080343F34CD34CC343D34D73423343C34F5
:10208000123483343A34B734D1343834C634273434
:102090003734383486343534C034D6343334CC34E1
:1020A0002B343234703489343034E734DB342E341A
:1020B000E5343C341E344234A2340D34013400344F
:1020C000003400340A340034003400346434003402
:1020D00000340034E834033400340034103427343E
:1020E00000340034A03486340134003440344234A7
:1020F0000F34003480349634983400340034E134A2
:10210000F53405340034CA349A343B342034533423
:1021100031342034203420345334323420342034C9
:102120002034533433340034253432342E343134B3
:0C2130006634203420342534643400343C
:102144007208710470040319A828A928AB288030E8
:10215400F20608008312031387100330F20097304D
:10216400F100F10BB328F20BB328B82801300A169A
:102174008A154A260A168A110A168A1567260A1625
:102184008A11F100710883120313ED000330F20089
:102194009730F100F10BCC28F20BCC28D128831214
:1021A400031387140330F2009730F100F10BD828A1
:1021B400F20BD828DD28080083120313071103301B
:1021C400F2009730F100F10BE528F20BE528EA283C
:1021D40001300A168A154A260A168A110A168A1521
:1021E40067260A168A11F100710883120313EE00A0
:1021F4000330F2009730F100F10BFE28F20BFE28B9
:1022040003298312031307150330F2009730F100FA
:10221400F10B0A29F20B0A290F290800F21F1329CE
:10222400142921297008003CF0007108031C710F67
:10223400003CF1007208031C720F803CF200F51F91
:102244002429252932297308003CF3007408031C4F
:10225400740F003CF4007508031C750F803CF500F6
:102264008030F2068030F50675087202031D40299D
:1022740074087102031D402973087002031843296E
:1022840044294629031047290314080070087104DF
:1022940003194D294E297D29F501F50A5C290130E0
:1022A4000310F00DF10DFF3E031D52290130F4001F
:1022B4007408F507F11F5F29602951297108730219
:1022C400031D662970087202031C69296A29702992
:1022D4007008F2027108031CF303F30201300310C7
:1022E400F10CF00CFF3E031D71290130F502031DB2
:1022F4007C297D2960297308F1007208F000080028
:10230400F000701C862987298B2983120313081473
:102314008E29831203130810F01C91299229942901
:10232400881495298810701D982999299B290815C6
:102334009C290811F01D9F29A029A2298815A329E9
:102344008811701EA629A729A9290816AA290812E6
:10235400F01EAD29AE29B0298816B1298812701F44
:10236400B429B529B7290817B8290813F01FBB29C0
:10237400BC29BE298817BF2988130800F801F90170
:10238400E52978087307F6007408F5000318F50AC0
:10239400F81FCD29F5037508F70077088312031396
:1023A400FF00760884000A168A1100200A168A1192
:1023B4000A168A15B9260A168A110130F807031875
:1023C400F90A0030F90778087307F6007408F50075
:1023D4000318F50AF81FEF29F5037508F7007708C5
:1023E40083120313FF00760884000A168A11002062
:1023F4000A168A11003A031D002A012AC32908007B
:10240400FB01FC01760877040319092A0A2A412AE8
:10241400FD01FD0A182A01300310F60DF70DFF3EE9
:10242400031D0E2A0130FA007A08FD07F71F1B2A44
:102434001C2A0D2A01300310FB0DFC0DFF3E031D69
:102444001D2A77087902031D292A76087802031CBD
:102454002C2A2D2A342A7608F8027708031CF9035B
:10246400F9027B1401300310F70CF60CFF3E031D38
:10247400352A0130FD02031D402A412A1C2A7C080A
:10248400F7007B08F60008008312031323082204D4
:102494002104200403194F2A502A932AA901A90AC6
:1024A400602A0130A8000310A00DA10DA20DA30DF8
:1024B400A80B552A0130A8002808A907A31F632ADE
:1024C400642A532A23082702031D722A220826029B
:1024D400031D722A21082502031D722A20082402E2
:1024E400031C752A762A842A2008A4022108031CC6
:1024F400210FA5022208031C220FA6022308031C95
:10250400230FA70201300310A30CA20CA10CA00CF2
:10251400FF3E031D852A0130A902031D922A932A36
:10252400642A2708A3002608A2002508A10024087D
:10253400A0000800F601F31FA02AA12AA82AF20984
:10254400F309F20A0319F30AF601F60AF11FAB2A9A
:10255400AC2AB12AF009F109F00A0319F10A70084A
:1025640071040319B62AB72AE62AF501F50AC52A21
:1025740001300310F00DF10DFF3E031DBB2A0130A5
:10258400F4007408F507F11FC82AC92ABA2A710889
:102594007302031DCF2A70087202031CD22AD32AA5
:1025A400D92A7008F2027108031CF303F302013004
:1025B4000310F10CF00CFF3E031DDA2A0130F50282
:1025C400031DE52AE62AC92A76080319EA2AEB2A12
:1025D400F02AF209F309F20A0319F30A7308F10065
:1025E4007208F00008001A30F500F830F400F40B1B
:1025F400F92AF50BF92A000030300A168A15F32659
:102604000A168A110730F5007D30F400F40B082B0C
:10261400F50B082B30300A168A15F3260A168A1190
:102624002130F400F40B142B30300A168A15F326EB
:102634000A168A112130F400F40B1E2B38300A16C6
:102644008A15F3260A168A111330F400F40B282B8A
:102654002B2B08300A168A15F3260A168A11133012
:10266400F400F40B332B362B01300A168A15F326AB
:102674000A168A110730F5007D30F400F40B402B64
:10268400F50B402B06300A168A15F3260A168A1112
:102694001330F400F40B4C2B4F2B0C300A168A1514
:1026A400F3260A168A111330F400F40B572B5A2B15
:1026B40008000030FC000030FB000030FA0000305D
:1026C400F900730872047104700403196A2B6B2BEC
:1026D400B82BFD01FD0A7B2B0130F8000310F00D2F
:1026E400F10DF20DF30DF80B702B0130F8007808A2
:1026F400FD07F31F7E2B7F2B6E2B0130F800031098
:10270400F90DFA0DFB0DFC0DF80B812B7308770204
:10271400031D962B72087602031D962B7108750211
:10272400031D962B70087402031C992B9A2BA92B5A
:102734007008F4027108031C710FF5027208031C7F
:10274400720FF6027308031C730FF7027914013039
:102754000310F30CF20CF10CF00CFF3E031DAA2B3A
:102764000130FD02031DB72BB82B7F2B7C08F3002F
:102774007B08F2007A08F1007908F000080083125F
:102784000313A101F81FC72BC82BCF2BF709F80996
:10279400F70A0319F80AA101A10AFA1FD22BD32BB5
:1027A400DC2BF909FA09F90A0319FA0A0130FB00CA
:1027B4007B08A106A201A301770878040319E32B7F
:1027C400E42B1B2CA001A00AF22B01300310F70DFF
:1027D400F80DFF3E031DE82B0130FB007B08A0072A
:1027E400F81FF52BF62BE72B01300310A20DA30DD8
:1027F400FF3E031DF72B78087A02031D032C77088C
:102804007902031C062C072C0E2C7708F902780891
:10281400031CFA03FA02221401300310F80CF70C1B
:10282400FF3E031D0F2C0130A002031D1A2C1B2C8C
:10283400F62B210803191F2C202C252CA209A309EF
:10284400A20A0319A30A2308F8002208F7000800C3
:10285400730803192E2C2F2C362C72087104700463
:10286400031D352C362C492C0030F0000030F100CB
:102874000030F200A52C0130F5007508F307013093
:102884000310F20CF10CF00CFF3E031D422CFE3041
:102894007205031D4E2C4F2C3D2C662C0130F50087
:1028A4007508F3070130F007003003180130F10711
:1028B400003003180130F20701300310F20CF10C60
:1028C400F00CFF3E031D5F2CFF307205031D6B2CC3
:1028D4006C2C502C772C0130F30201300310F00DD6
:1028E400F10DF20DFF3E031D702CF11B7A2C7B2C95
:1028F400812C023073020318802C812C6D2C7318E8
:10290400842C852C8B2CFF30F0057F30F105FF30B3
:10291400F2050310F30C7308F500F601F70110300B
:102924000310F50DF60DF70DFF3E031D922C7508EF
:10293400F0047608F1047708F20474080319A32C50
:10294400A42CA52CF2170800831203134108C50018
:102954004208C6004308C7000310460D470DC800CF
:102964004808CE004E08031DB82CB92CC22C0030E8
:10297400C4000030C3000030C2000030C100312D5B
:102984004108C5004208C6004308C70017300310B9
:10299400C70CC60CC50CFF3E031DC92C4508C80056
:1029A4004808C900C217FF30C105FF30C205003016
:1029B400C3054108CA004208CB004308CC00CD013E
:1029C4008E30CE02CE1FE72CE82C022D4E08803A22
:1029D4008F3E0318EE2CEF2CF02CB92C0130031091
:1029E400CD0CCC0CCB0CCA0CFF3E031DF12C0130DA
:1029F400C5004508CE07031D002D012DF02C192D0F
:102A040018304E02031C072D082D142DB92C01304B
:102A1400C5000310CA0DCB0DCC0DCD0DC50B0B2D70
:102A24000130CE024E08031D182D192D092D490819
:102A340003191D2D1E2D292DCA09CB09CC09CD0939
:102A4400CA0A0319CB0A0319CC0A0319CD0A4D0883
:102A5400C4004C08C3004B08C2004A08C100080067
:102A64007008F6007108F7007208F8000310770D7B
:102A7400780DF900790883120313A5002508031DB6
:102A8400442D452D4E2D0030F3000030F20000306F
:102A9400F1000030F000EE2D7308F6007408F70022
:102AA4007508F8000310770D780DF9007908A40073
:102AB4002408031D5E2D5F2D602D452DF117FF3079
:102AC400F005FF30F1050030F205F417FF30F3058F
:102AD400FF30F4050030F5050030A3000030A200FB
:102AE4000030A1000030A0007F30A50298302407F8
:102AF400F6007608A5021830F6007608A400013026
:102B0400F6000310A00DA10DA20DA30DF60B832D4D
:102B140075087202031D942D74087102031D942D0F
:102B240073087002031C972D982DA32D7308F002CF
:102B34007408031C740FF1027508031C750AF20271
:102B4400201401300310F00DF10DF20DFF3E031DB2
:102B5400A42D0130A402031DB02DB12D812DA51F7C
:102B6400B42DB52DCF2D2508803A973E0318BB2DE3
:102B7400BC2DBD2D452D01300310A30CA20CA10CBE
:102B8400A00CFF3E031DBE2D0130F6007608A507FC
:102B9400031DCD2DCE2DBD2DE62D18302502031C91
:102BA400D42DD52DE12D452D0130F6000310A00DB7
:102BB400A10DA20DA30DF60BD82D0130A5022508F9
:102BC400031DE52DE62DD62D2308F3002208F2007F
:102BD4002108F1002008F0000800831203132808DC
:102BE400AE002908AF002A08B00003102F0D300DE5
:102BF400B1003108B2003208031D012E022E092E45
:102C04000030A8000030A9000030AA00D32E2B0801
:102C1400AE002C08AF002D08B00003102F0D300DAE
:102C2400B1003108B7003708031D192E1A2E212EC2
:102C34000030A8000030A9000030AA00D32E3708C5
:102C44007B3EAE002E08B2072808AE002908AF006C
:102C54002A08B00010300310B00CAF0CAE0CFF3ECD
:102C6400031D2D2E2E08B1003108B7002B08AE002D
:102C74002C08AF002D08B00010300310B00CAF0CBE
:102C8400AE0CFF3E031D3F2E2E08B1003108B706DF
:102C94008030AE002E08B705A917AC17FF30AB057E
:102CA400FF30AC050030AD050030B3000030B40097
:102CB4000030B5000730AE002E08B600281C632E85
:102CC400642E742E2B08B3072C08031103182C0A46
:102CD40003196D2EB4072D08031103182D0A0319C7
:102CE400742EB50701300310AA0CA90CA80CFF3EE2
:102CF400031D752E01300310AB0DAC0DAD0DFF3E61
:102D0400031D7D2E0130B602031D892E8A2E602EEE
:102D14000930AE002E08B600281C912E922EA22E49
:102D24002B08B3072C08031103182C0A03199B2E34
:102D3400B4072D08031103182D0A0319A22EB50791
:102D440001300310AA0CA90CA80CFF3E031DA32EEE
:102D540001300310B50CB40CB30CFF3E031DAB2EB5
:102D64000130B602031DB72EB82E8E2E3308F000A4
:102D74003408F1003508F2003208AE002E08F300E2
:102D84003708AF002F08F4000A168A112A240A16FD
:102D94008A11700883120313A8007108A90072082D
:102DA400AA000800703084000008F600840A0008B5
:102DB400F700840A0008F800840A0008F9000310E8
:102DC400780D790DFA007A0883120313A5002508FB
:102DD400031DED2EEE2EF72E0030F3000030F2002E
:102DE4000030F1000030F000FF2F73308400000841
:102DF400F600840A0008F700840A0008F800840A30
:102E04000008F9000310780D790DFA007A08A4007F
:102E14002408031D0E2F0F2F102FEE2E7030840068
:102E240000308004840A00308004840A80308004E6
:102E3400840A0030800470308400FF308005840AE6
:102E4400FF308005840AFF308005840A0030800545
:102E54007330840000308004840A00308004840AC3
:102E640080308004840A0030800473308400FF3092
:102E74008005840AFF308005840AFF308005840AB7
:102E8400003080050030A3000030A2000030A10013
:102E94000030A0007F30A502A0302407F600760899
:102EA400A5022030F6007608A4000130F6000310D5
:102EB400A00DA10DA20DA30DF60B592F73308400A4
:102EC4000008F600840A0008F700840A0008F800E5
:102ED400840A0008F900703084000008FA00840AAB
:102EE4000008FB00840A0008FC00840A0008FD00B6
:102EF40079087D02031D882F78087C02031D882F22
:102F040077087B02031D882F76087A02031C8B2F17
:102F14008C2FAF2F733084000008F600840A000859
:102F2400F700840A0008F800840A0008F9007030E9
:102F3400840076088002840A7708031C770F8002D5
:102F4400840A7808031C780F8002840A7908031C19
:102F5400790A800203308402201470308400031044
:102F6400800D840A800D840A800D840A800D8403F8
:102F7400840384030130A402031DC12FC22F572FE1
:102F8400A51FC52FC62FE02F2508803A9F3E0318A2
:102F9400CC2FCD2FCE2FEE2E01300310A30CA20C7C
:102FA400A10CA00CFF3E031DCF2F0130F6007608C4
:102FB400A507031DDE2FDF2FCE2FF72F203025028C
:102FC400031CE52FE62FF22FEE2E0130F60003103E
:102FD400A00DA10DA20DA30DF60BE92F0130A50242
:102FE4002508031DF62FF72FE72F2308F3002208E7
:0C2FF400F2002108F1002008F0000800A5
:103C9400F0007008831203139300080083160313C3
:103CA400141C552E562E502E0800831203139817F9
:103CB4001813981218169A01080064008001840AE7
:103CC4000406031900340406602E0A168A155026C9
:103CD4000A168A15831203131308080083160313A4
:103CE4009813181398161812181198101810080021
:103CF400F100F0013A3071020318812E822E8A2ECF
:103D040030307102031C872E882E8A2EF001F00AAF
:103D1400700C0800F300831603138712731D932E8F
:103D2400942E982E7208940087159C2E70087204A5
:103D3400940087117308710483120313940008001C
:103D440083120313A700A601271CA92EAA2EAE2EA8
:103D54002408A5002508A6070310A40D0310A70C2A
:103D64002708031DB62EB72EA62E26080800F2003B
:103D740083120313091472080A168A1182210A167F
:103D84008A15831203138914C72EC82E00008312C8
:103D940003138910CD2ECE2E00001030F100F10B4C
:103DA400D12E0000080083160317880189018316A9
:103DB400031388018901831203138801890183167F
:103DC4000313871007118312031307158714F001D7
:103DD400F101F20120300A168A158C260A168A157A
:103DE4000800F30083120313091073080A168A11DA
:103DF40082210A168A15831203138914012F022FB4
:103E04000000831203138910072F082F00000330CA
:103E1400F2009730F100F10B0D2FF20B0D2F122F42
:103E24000800F6007603031D182F192F252F740898
:103E3400803EF5007508F70077080A168A15F32600
:103E44000A168A15362F02307606031D2A2F2B2FC9
:103E5400362F7408C03EF5007508F70077080A1677
:103E64008A15F3260A168A150800FD01F91F3B2F4F
:103E74003C2F432FF809F909F80A0319F90AFD013F
:103E8400FD0A7808F0007908F100F2018E30FB0099
:103E94007B08F3007D08FC007C08F4000A168A11F4
:103EA4002A240A168A157008F8007108F9007208A5
:103EB400FA00080083120313570856045504031923
:103EC400642F652F672F8030D7065808C80059081B
:103ED400C9005A08CA005508CB005608CC00570838
:103EE400CD000A128A1110200A168A1583120313B0
:103EF4004808D5004908D6004A08D7000800F4014C
:103F0400F501701C862F872F8D2F7208F407031874
:103F1400F50A7308F50701300310F20DF30DFF3EA7
:103F2400031D8E2F01300310F10CF00CFF3E031D16
:103F3400952F70087104031DA02FA12F832F7508DE
:103F4400F1007408F0000800F401BD2F7408710733
:103F5400840072080318720AFF000A168A110020EE
:103F64000A168A150A128A1505200A168A150130BE
:103F7400F3007308F40774087107840072080318C7
:103F8400720A83120313FF000A168A1100200A160C
:103F94008A15003A031DCF2FD02FA82F08008E308A
:103FA400FC007C08FD00E32F01300310FB0CFA0C2D
:103FB400F90CF80CFF3E031DD72F0130FC007C08E0
:103FC400FD07FF307B05031DE82FE92FD62F780866
:103FD400F0007908F1007A08F2007D08FC007C0802
:103FE400F300F4010A168A112A240A168A157008A5
:0C3FF400F8007108F9007208FA000800DB
:04400E00D620FF3F7A
:00000001FF
