:020000040000FA
:060000000A128A11EE2F26
:10000A0000300A168A1537260A128A1101300A1692
:10001A008A1537260A128A11080083120313480820
:10002A00CE004908CF004A08D00003104F0D500DEA
:10003A00D1005108D4004B08CE004C08CF004D081F
:10004A00D00003104F0D500DD1005108D3005408B1
:10005A000319302831284128530854020318362836
:10006A00372848285308CE005408CE0219304E02C9
:10007A00031C4028412848284B08C8004C08C900DE
:10008A004D08CA004729530803194C284D285D28F2
:10009A00540853020318522853285E285408CE00E5
:1000AA005308CE0219304E02031C5C285D285E28D4
:1000BA0047290630CE004E08D200CA1F6528662896
:1000CA006728D217CD1F6A286B286C285217C917C0
:1000DA00FF30C805FF30C9050030CA05CC17FF300C
:1000EA00CB05FF30CC050030CD0553085402031868
:1000FA007F288028AC2801300310CB0DCC0DCD0D04
:10010A00FF3E031D81280130D30253085406031908
:10011A008F289028A5280130D20252080739031DDA
:10012A00972898288028A52801300310CA0CC90CE2
:10013A00C80CFF3E031D9A280130CE004E08D40792
:10014A0054085306031DAA28AB289928DD28540809
:10015A0053020318B128B228DD2801300310C80D54
:10016A00C90DCA0DFF3E031DB3280130D40253083E
:10017A0054060319C128C228D7280130D2025208CE
:10018A000739031DC928CA28B228D7280130031005
:10019A00CD0CCC0CCB0CFF3E031DCC280130CE007D
:1001AA004E08D30754085306031DDC28DD28CB2844
:1001BA00D21FE028E128F128FF30C806FF30C9061F
:1001CA00FF30CA060130C807003003180130C907DA
:1001DA00003003180130CA07521FF428F5280529F0
:1001EA00FF30CB06FF30CC06FF30CD060130CB07FF
:1001FA00003003180130CC07003003180130CD0756
:10020A00D2014808CB07490803110318490A031900
:10021A000F29CC074A08031103184A0A0319162999
:10022A00CD07CD1F19291A292C29FF30CB06FF30FB
:10023A00CC06FF30CD060130CB0700300318013061
:10024A00CC07003003180130CD07D201D20A4B087F
:10025A00F0004C08F1004D08F2005408CE004E0898
:10026A00F3005208CF004F08F4000A168A11BA2385
:10027A000A128A11700883120313C8007108C90090
:10028A007208CA000800831603134E084D044C0472
:10029A00031950295129E1294C0883120313C1007B
:1002AA00831603134D0883120313C2008316031324
:1002BA004E0883120313C3000A168A1136240A123F
:1002CA008A11831203134408430442044104031DA0
:1002DA006F297029E129831603134B08803AFF001E
:1002EA0080307F02031D7B2902304A02031C7E29CB
:1002FA007F29E129831603134208F0004308F1001D
:10030A004408F2007030F3008930F4004030F50000
:10031A000A168A15C8270A128A11031895299629D6
:10032A009F29F73083160313CA070318CB0AFF3035
:10033A00CB07A729F83083160313CA070318CB0A79
:10034A00FF30CB074A080A128A157D220A128A113F
:10035A0083120313380883160313C200831203138C
:10036A00390883160313C300831203133A0883164A
:10037A000313C4004C08F0004D08F1004E08F200C7
:10038A004208F3004308F4004408F5000A128A15EB
:10039A001F200A128A11730883160313C9007208F0
:1003AA00C8007108C7007008C6000030CC000030D1
:1003BA00CD000030CE00502A831603134C08831256
:1003CA000313C100831603134D0883120313C200DB
:1003DA00831603134E0883120313C3000A168A11E5
:1003EA0036240A128A11831203134408831603134C
:1003FA00C90083120313430883160313C800831228
:10040A000313420883160313C70083120313410818
:10041A0083160313C6004908FB004808FA00470878
:10042A00F9004608F8000A168A1535270A128A11B1
:10043A00780883120313D5007908D6007A08D70002
:10044A00831603134C0883120313D800831603136D
:10045A004D0883120313D900831603134E0883121F
:10046A000313DA000A168A15C0260A128A118312A1
:10047A000313550883160313CC008312031356087B
:10048A0083160313CD00831203135708831603132D
:10049A00CE00CA01CB01D201D20A52088312031339
:1004AA00E40001300310E40DFF3E031D572A031038
:1004BA00640D4F3E84000A168A110A200A128A1114
:1004CA00E5000A168A110A200A128A11E6000A169B
:1004DA008A110A200A128A11E7000A168A110A20CA
:1004EA000A128A11E8006808831603134902031DD9
:1004FA00942A831203136708831603134802031D01
:10050A00942A831203136608831603134702031DF2
:10051A00942A8312031365088316031346020318E9
:10052A00972A982A992AA72A013083120313E400EA
:10053A00640883160313D2070A305206031DA62A3B
:10054A00A72A522A5208500783120313E40083167B
:10055A00031351080318510A83120313E500831683
:10056A0003134A08831203136407E600831603136E
:10057A004B0803184B0A831203136507E700660842
:10058A0083160313C0028312031367088316031327
:10059A00031CC103C102500851040319D52AD62AE3
:1005AA00DC2AFF30C0070318C10AFF30C107033035
:1005BA003E0583120313E4000030831603133F053C
:1005CA0083120313E500640865040319ED2AEE2A71
:1005DA000B2BFF3083160313C0070318C10AFF3021
:1005EA00C1070B2B203083120313E4008316031375
:1005FA004F088400831203136408831380000130B8
:10060A00E400640883160313CF07EE2A8316031344
:10061A004108803AFF0080307F02031D162B01300B
:10062A0040020318192B1A2BF72A033083160313D7
:10063A003E0583120313E4000030831603133F05BB
:10064A0083120313E5006408650403192D2B2E2B6E
:10065A00D22B2D30E400831603134F088400831233
:10066A0003136408831380000130E40064088316CE
:10067A000313CF07D22B520883120313E40001306D
:10068A000310E40DFF3E031D452B0310640D4F3E7E
:10069A0084000A168A110A200A128A11F0000A1620
:1006AA008A110A200A128A11F1000A168A110A20EE
:1006BA000A128A11F2000A168A110A200A128A11EB
:1006CA00F300831603134908F7004808F6004708A1
:1006DA00F5004608F4000A168A11EB220A128A115A
:1006EA00730883160313C5007208C4007108C30097
:1006FA007008C200003083120313A3000030A20066
:10070A000030A1000A30A0008316031345088312A3
:10071A000313A70083160313440883120313A600C6
:10072A0083160313430883120313A50083160313C6
:10073A00420883120313A4000A168A11D6210A1248
:10074A008A1183120313230883160313C500831225
:10075A000313220883160313C40083120313210808
:10076A0083160313C300831203132008831603138B
:10077A00C2004208303E83120313E40083160313B7
:10078A004F08840083120313640883138000013026
:10079A00E400640883160313CF070130831603139A
:1007AA00D202520A031DDA2BDB2B402BF52B3030F9
:1007BA0083120313E400831603134F088400831281
:1007CA0003136408831380000130E400640883166D
:1007DA000313CF07FF30CA070318CB0AFF30CB0732
:1007EA004B08803AFF0080307F02031DFE2B013048
:1007FA004A020318012C022CDC2B8316031351081E
:10080A00803AFF0080307F02031D0D2C0930500210
:10081A00031C102C112C1A2C083083120313E40029
:10082A00640883160313D200242C8316031350087A
:10083A0083120313E400640883160313D2005208D8
:10084A0083120313E400E501640883160313D0023C
:10085A0083120313650883160313031CD103D10201
:10086A0052080319392C3A2C4D2C2E3083120313BB
:10087A00E400831603134F088400831203136408E9
:10088A00831380000130E400640883160313CF0742
:10089A0052080A128A157D220A128A118312031338
:1008AA00380883160313BA00831203133908831610
:1008BA000313BB00831203133A0883160313BC0005
:1008CA003A0883120313AB00831603133B088312FF
:1008DA000313AC00831603133C0883120313AD0001
:1008EA00831603134C0883120313A80083160313F9
:1008FA004D0883120313A900831603134E088312AB
:10090A000313AA000A168A11C2240A128A11831230
:10091A0003132808C1002908C2002A08C3000A16BE
:10092A008A1136240A128A11831203134408831681
:10093A000313C90083120313430883160313C80061
:10094A0083120313420883160313C7008312031387
:10095A00410883160313C6009F2D520883120313FE
:10096A00E40001300310E40DFF3E031DB72C031011
:10097A00640D4F3E84000A168A110A200A128A114F
:10098A00F0000A168A110A200A128A11F1000A16C0
:10099A008A110A200A128A11F2000A168A110A20FA
:1009AA000A128A11F300831603134908F70048084C
:1009BA00F6004708F5004608F4000A168A11EB22E9
:1009CA000A128A11730883160313C5007208C40039
:1009DA007108C3007008C200003083120313A30019
:1009EA000030A2000030A1000A30A00083160313D1
:1009FA00450883120313A7008316031344088312BE
:100A0A000313A60083160313430883120313A500D6
:100A1A0083160313420883120313A4000A168A11C9
:100A2A00D6210A128A118312031323088316031389
:100A3A00C50083120313220883160313C40083120A
:100A4A000313210883160313C30083120313200818
:100A5A0083160313C2004208303E83120313E400D4
:100A6A00831603134F088400831203136408831345
:100A7A0080000130E400640883160313CF0752088C
:100A8A0083120313E40001300310E40DFF3E031D3B
:100A9A00492D0310640D4F3E84000A168A110A205C
:100AAA000A128A11A0000A168A110A200A128A1149
:100ABA00A1000A168A110A200A128A11A2000A162D
:100ACA008A110A200A128A11A300831603134908FD
:100ADA0083120313A7008316031348088312031310
:100AEA00A60083160313470883120313A50083166F
:100AFA000313460883120313A4000A168A11D62187
:100B0A000A128A1183120313230883160313C900D6
:100B1A0083120313220883160313C80083120313D4
:100B2A00210883160313C7008312031320088316B0
:100B3A000313C6000130D202520A031DA52DA62DA9
:100B4A00B22CC02D303083120313E4008316031332
:100B5A004F08840083120313640883138000013052
:100B6A00E400640883160313CF07FF30D007031885
:100B7A00D10AFF30D10750085104031DC52DC62DD7
:100B8A00A72DD02F831603133D0884008313000872
:100B9A0083120313E400840A0008E500640883163C
:100BAA000313C60083120313650883160313C700D1
:100BBA000030C71BFF30C800C9000230831203137C
:100BCA00E400640883160313BD07C91FED2DEE2D3B
:100BDA00FD2D0330BE040030BF04C609C709C80989
:100BEA00C909C60A0319C70A0319C80A0319C90A8F
:100BFA0050085104031D022E032E112E49084804E1
:100C0A0047044604031D0A2E0B2E112E0130D0076D
:100C1A000318D10A0030D107D201D20A520883122E
:100C2A000313E40001300310E40DFF3E031D182EE8
:100C3A000310640D4F3E84000A168A110A200A1214
:100C4A008A11E5000A168A110A200A128A11E60098
:100C5A000A168A110A200A128A11E7000A168A114C
:100C6A000A200A128A11E800680883160313490247
:100C7A00031D552E831203136708831603134802B4
:100C8A00031D552E831203136608831603134702A6
:100C9A00031D552E83120313650883160313460298
:100CAA000318582E592E5A2E682E01308312031318
:100CBA00E400640883160313D2070A305206031DA0
:100CCA00672E682E132E5108803A803C031D6F2E22
:100CDA00500852020318722E732E7E2E83160313A7
:100CEA00500883120313E400640883160313D20026
:100CFA00A22E831603135108803A83120313E400C9
:100D0A0080306402031D8D2E83160313520850028D
:100D1A000318902E912EA22E8316031352088312C3
:100D2A000313E400E501640883160313D000831259
:100D3A000313650883160313D100831603134008AF
:100D4A0041040319A92EAA2EC42E03303E0583128C
:100D5A000313E4000030831603133F0583120313C1
:100D6A00E500640865040319BB2EBC2EC42EFF30AF
:100D7A0083160313C0070318C10AFF30C10783167D
:100D8A0003133F1FC92ECA2EED2E5108803A831233
:100D9A000313E400831603134108803A83120313F2
:100DAA006402031DDC2E8316031340085002031845
:100DBA00DF2EE02EE92E831603135008C0025108D5
:100DCA00031CC103C102ED2E83160313C001C10126
:100DDA004108803A803C031DF42E40085202031851
:100DEA00F72EF82E0C2F83160313520883120313BF
:100DFA00E400E501640883160313C0028312031397
:100E0A00650883160313031CC103C102102F83163E
:100E1A000313C001C101400841040319152F162FFD
:100E2A00352F203083120313E400831603134F086F
:100E3A008400831203136408831380000130E400E2
:100E4A00640883160313CF07FF30C0070318C10ACB
:100E5A00FF30C10740084104031D342F352F162FD8
:100E6A0003303E0583120313E40000308316031394
:100E7A003F0583120313E500640865040319462F2E
:100E8A00472FC02F2D30E400831603134F08840028
:100E9A00831203136408831380000130E40064089A
:100EAA0083160313CF07C02F003083120313A30046
:100EBA000030A2000030A1000A30A00083160313FC
:100ECA00500883120313E40001300310E40DFF3EBF
:100EDA00031D6A2F0310640D4F3E84000A168A11FF
:100EEA000A200A128A11F0000A168A110A200A1226
:100EFA008A11F1000A168A110A200A128A11F200CE
:100F0A000A168A110A200A128A11F3008316031399
:100F1A004908F7004808F6004708F5004608F400B3
:100F2A000A168A11EB220A128A1173088312031312
:100F3A00A7007208A6007108A5007008A4000A1686
:100F4A008A11D6210A128A11831203132008303E0D
:100F5A00E500650883160313D200520883120313AF
:100F6A00E400831603134F088400831203136408F2
:100F7A0083138000522FFF3083160313D007031800
:100F8A00D10AFF30D107500A031DCF2F510A031D82
:100F9A00CF2FD02F592F01308312DB07FF305B0789
:100FAA0084000A168A110A200A128A11E4006408C7
:100FBA0083160313D2005208031DE42FE72F0A12E7
:100FCA008A15362D831603134F0884008313800174
:100FDA00080083120313ED01EE01EF018313A03021
:100FEA008400BA300A168A15C7250A128A118301A3
:060FFA000A168A11D32E35
:10100600F20083120313091472080A168A111221B8
:101016000A128A1583120313891411281228000054
:101026008312031389101728182800001030F100C6
:10103600F10B1B28000008007008F6007108F70085
:101046007208F8000310770D780DF90079088312FD
:101056000313A5002508031D312832283B2800303C
:10106600F3000030F2000030F1000030F000DB2821
:101076007308F6007408F7007508F8000310770D7A
:10108600780DF9007908A4002408031D4B284C2884
:101096004D283228F117FF30F005FF30F1050030FA
:1010A600F205F417FF30F305FF30F4050030F505BF
:1010B6000030A3000030A2000030A1000030A000E4
:1010C6007F30A50298302407F6007608A50218306E
:1010D600F6007608A4000130F6000310A00DA10D5D
:1010E600A20DA30DF60B702875087202031D812848
:1010F60074087102031D812873087002031C84287A
:10110600852890287308F0027408031C740FF102F6
:101116007508031C750AF202201401300310F00D45
:10112600F10DF20DFF3E031D91280130A402031DAF
:101136009D289E286E28A51FA128A228BC28250820
:10114600803A973E0318A828A928AA2832280130F1
:101156000310A30CA20CA10CA00CFF3E031DAB2890
:101166000130F6007608A507031DBA28BB28AA2871
:10117600D32818302502031CC128C228CE283228BD
:101186000130F6000310A00DA10DA20DA30DF60B64
:10119600C5280130A5022508031DD228D328C32857
:1011A6002308F3002208F2002108F1002008F000CD
:1011B600080083120313C7006E304702031CE4289D
:1011C600E528BC290330BB003B08A4004708BC0047
:1011D600BD013C08F2003D08F3006430F000003029
:1011E600F1000A168A11D8200A128A157108F90028
:1011F6007008F8000A30F6000030F7000A168A1167
:1012060092210A128A1576080A168A1520260A12CB
:101216008A15433E84000A168A110A200A128A1584
:1012260083120313A8000A168A110A200A128A15C5
:10123600A9000A168A110A200A128A15AA00033082
:10124600BE003E08A4004708BF00C0013F08F800E2
:101256004008F9006430F6000030F7000A168A11DB
:1012660092210A128A1576080A168A1520260A126B
:101276008A155E3E84000A168A110A200A128A1509
:1012860083120313AB000A168A110A200A128A1562
:10129600AC000A168A110A200A128A15AD000A162F
:1012A6008A11C2240A128A15831203132808C4005D
:1012B6002908C5002A08C6000330BB003B08A40065
:1012C6004708BC00BD013C08F2003D08F3000A30A7
:1012D600F0000030F1000A168A11D8200A128A1589
:1012E60070080A168A1520260A128A15283E8400D6
:1012F6000A168A110A200A128A1583120313A800F5
:101306000A168A110A200A128A15A9000A168A11D3
:101316000A200A128A15AA004408AB004508AC0048
:101326004608AD000A168A11C2240A128A158312CB
:1013360003132808C1002908C2002A08C300003088
:10134600A8000030A9003F30AA004108AB004208BF
:10135600AC004308AD000A168A11C2240A128A1587
:10136600831203132808B8002908B9002A08BA000E
:101376007C2A0B304702031CC129C229492A0330A3
:10138600BB003B08A4004708BC00BD013C08F200B6
:101396003D08F3000A30F0000030F1000A168A1109
:1013A600D8200A128A1570080A168A1520260A12EB
:1013B6008A15283E84000A168A110A200A128A15FE
:1013C60083120313A8000A168A110A200A128A1524
:1013D600A9000A168A110A200A128A15AA000330E1
:1013E600BE003E08A4004708BF00C0013F08F80041
:1013F6004008F9000A30F6000030F7000A168A1194
:1014060092210A128A1576080A168A1520260A12C9
:101416008A15433E84000A168A110A200A128A1582
:1014260083120313AB000A168A110A200A128A15C0
:10143600AC000A168A110A200A128A15AD000A168D
:101446008A11C2240A128A15831203132808C400BB
:101456002908C5002A08C6000030A8000030A900E7
:101466003F30AA004408AB004508AC004608AD0072
:101476000A168A11C2240A128A158312031328082F
:10148600B8002908B9002A08BA007C2A0030A8004A
:101496000030A9003F30AA000330BB003B08A4007F
:1014A60047080A168A1520260A128A15283E84003D
:1014B6000A168A110A200A128A1583120313AB0030
:1014C6000A168A110A200A128A15AC000A168A110F
:1014D6000A200A128A15AD000A168A11C2240A12B7
:1014E6008A15831203132808B8002908B9002A08A8
:1014F600BA00080083120313C000C01F832A842A7F
:10150600D72BC009C00A4008803A123E031C8C2A19
:101516008D2A452B0330BB003B08A4004008F2008F
:10152600F301F21BF3036430F0000030F1000A16F9
:101536008A112C220A128A157108FA007008F9001D
:101546000A30F7000030F8000A168A1151230A12F1
:101556008A1577080A168A1520260A128A15433E26
:1015660084000A168A110A200A128A1583120313A6
:10157600A8000A168A110A200A128A15A9000A1654
:101586008A110A200A128A15AA000330BC003C08F8
:10159600A4004008F900FA01F91BFA036430F700C9
:1015A6000030F8000A168A1151230A128A157708A4
:1015B6000A168A1520260A128A155E3E84000A1625
:1015C6008A110A200A128A1583120313AB000A161F
:1015D6008A110A200A128A15AC000A168A110A20F4
:1015E6000A128A15AD000A168A11C2240A128A1531
:1015F600831203132808BD002908BE002A08BF006D
:101606000330BB003B08A4004008F200F301F21BC4
:10161600F3030A30F0000030F1000A168A112C227A
:101626000A128A1570080A168A1520260A128A15C1
:10163600283E84000A168A110A200A128A15831285
:101646000313A8000A168A110A200A128A15A9008D
:101656000A168A110A200A128A15AA003D08AB004A
:101666003E08AC003F08AD000A168A11C2240A12D1
:101676008A15831203132808B8002908B9002A0816
:10168600BA00272D4008803A753E031C4B2B4C2B85
:10169600B62B0330BB003B08A4004008F200F30160
:1016A600F21BF3030A30F0000030F1000A168A112B
:1016B6002C220A128A1570080A168A1520260A1282
:1016C6008A15283E84000A168A110A200A128A15EB
:1016D60083120313A8000A168A110A200A128A1511
:1016E600A9000A168A110A200A128A15AA000330CE
:1016F600BC003C08A4004008F900FA01F91BFA03F3
:101706000A30F7000030F8000A168A1151230A122F
:101716008A1577080A168A1520260A128A15433E64
:1017260084000A168A110A200A128A1583120313E4
:10173600AB000A168A110A200A128A15AC000A168C
:101746008A110A200A128A15AD000A168A11C224C5
:101756000A128A15831203132808B8002908B9004B
:101766002A08BA00272D0330BB003B08A400400816
:101776000A168A1520260A128A15283E84000A1699
:101786008A110A200A128A1583120313B8000A1650
:101796008A110A200A128A15B9000A168A110A2025
:1017A6000A128A15BA00272D4008803A123E031CF9
:1017B600DD2BDE2B962C0330BB003B08A400400833
:1017C600F200F301F21BF3036430F0000030F10085
:1017D6000A168A112C220A128A157108FA00700854
:1017E600F9000A30F7000030F8000A168A11512372
:1017F6000A128A1577080A168A1520260A128A15E9
:101806001C3E84000A168A110A200A128A158312BF
:101816000313A8000A168A110A200A128A15A900BB
:101826000A168A110A200A128A15AA000330BC0079
:101836003C08A4004008F900FA01F91BFA036430D9
:10184600F7000030F8000A168A1151230A128A1589
:1018560077080A168A1520260A128A15373E84004A
:101866000A168A110A200A128A1583120313AB007C
:101876000A168A110A200A128A15AC000A168A115B
:101886000A200A128A15AD000A168A11C2240A1203
:101896008A15831203132808BD002908BE002A08EA
:1018A600BF000330BB003B08A4004008F200F30170
:1018B600F21BF3030A30F0000030F1000A168A1119
:1018C6002C220A128A1570080A168A1520260A1270
:1018D6008A15013E84000A168A110A200A128A1500
:1018E60083120313A8000A168A110A200A128A15FF
:1018F600A9000A168A110A200A128A15AA003D08AA
:10190600AB003E08AC003F08AD000A168A11C2249F
:101916000A128A15831203132808B8002908B90089
:101926002A08BA00272D4008803A753E031C9C2CD5
:101936009D2C072D0330BB003B08A4004008F20095
:10194600F301F21BF3030A30F0000030F1000A162F
:101956008A112C220A128A1570080A168A15202660
:101966000A128A15013E84000A168A110A200A12F2
:101976008A1583120313A8000A168A110A200A126E
:101986008A15A9000A168A110A200A128A15AA00BF
:101996000330BC003C08A4004008F900FA01F91B1A
:1019A600FA030A30F7000030F8000A168A115123AC
:1019B6000A128A1577080A168A1520260A128A1527
:1019C6001C3E84000A168A110A200A128A158312FE
:1019D6000313AB000A168A110A200A128A15AC00F4
:1019E6000A168A110A200A128A15AD000A168A11E9
:1019F600C2240A128A15831203132808B80029087C
:101A0600B9002A08BA00272D0330BB003B08A40002
:101A160040080A168A1520260A128A15013E8400F5
:101A26000A168A110A200A128A1583120313B800AD
:101A36000A168A110A200A128A15B9000A168A118C
:101A46000A200A128A15BA00080083160313CF006B
:101A56005C3083120313E400640883160313BD008D
:101A66000A128A11D02F2530520603193B2D3C2D20
:101A7600502D520883120313E400831603134F08F4
:101A86008400831203136408831380000130E4008A
:101A9600640883160313CF07332DC001C101BE01AD
:101AA600BF01831203135B0884000A168A110A20F9
:101AB6000A128A150A168A15F8250A128A15031CAF
:101AC600652D662DB02D83160313C001C1010A30A2
:101AD600F0000030F100831603134108F3004008BC
:101AE600F2000A168A15E5260A128A157108831667
:101AF6000313C1007008C000831203135B0884003F
:101B06000A168A110A200A128A15D03EE400FF300E
:101B160003180030E500640883160313C007031892
:101B2600C10A83120313650883160313C107013024
:101B360083120313E4006408DB075B0884000A16BB
:101B46008A110A200A128A150A168A15F8250A1217
:101B56008A150318AF2DB02D6A2D831203135B0867
:101B660084000A168A110A200A128A152E3A031DC3
:101B7600BD2DBE2D142E831603133F17013083127D
:101B86000313E4006408DB0783160313D001D101B5
:101B9600022E0A30F0000030F100831603135108BC
:101BA600F3005008F2000A168A15E5260A128A156D
:101BB600710883160313D1007008D0008312031333
:101BC6005B0884000A168A110A200A128A15D03E7A
:101BD600E400FF3003180030E500640883160313A1
:101BE600D0070318D10A831203136508831603135B
:101BF600D107013083120313E4006408DB07831264
:101C06005B0884000A168A110A200A128A150A1627
:101C16008A15F8250A128A150318122E132ECC2DB2
:101C26001E2E83160313D001D1013F161E2E8316D6
:101C360003133F15442E013083120313DB07FF30D5
:101C46005B0784000A168A110A200A128A1583166F
:101C56000313D20083120313E400E5016508003A7A
:101C66000319362E332D6408003A0319FD2F643A02
:101C76000319442E023A03191A2E0F3A0319442E59
:101C8600332D0030831603133E0583120313E4003D
:101C96000730831603133F0583120313E500640818
:101CA60065040319572E5A2E0A128A11C72D831658
:101CB60003133F1E5F2E602E642E0630D0000030C8
:101CC600D1003D08840083130008CC00840A000874
:101CD600CD00840A0008CE00033083120313E4000B
:101CE600640883160313BD074C08F0004D08F10085
:101CF6004E08F2000030F3000030F4000030F5002A
:101D06000A168A15C8270A128A1503188B2E8C2ED6
:101D1600A52E831603134C08F0004D08F1004E085B
:101D2600F2000A168A15E2250A128A157008831629
:101D36000313CC007108CD007208CE000330BE0438
:101D46000030BF0483160313CA01CB014E084D04AD
:101D56004C040319AF2EB02EA22FCC30840083136F
:101D6600000883120313E400840A0008E500840ACD
:101D76000008E600840A0008E7000F300310E70CAD
:101D8600E60CE50CE40CFF3E031DC12EFF30640596
:101D9600E80000306505E9006808823E83160313F3
:101DA600CA008312031369080318013EFF3E831617
:101DB6000313CB00FF30CA070318CB0AFF30CB074B
:101DC6000330F0000030F1004B08F3004A08F2003F
:101DD6000A168A15E5260A128A1571088316031350
:101DE600CB007008CA000A30F7000030F8004B0834
:101DF600FA004A08F9000A168A1151230A128A15AE
:101E0600780883160313CB007708CA00CB1F0C2F64
:101E16000D2F132FFF30CA070318CB0AFF30CB074D
:101E26004A03FF3A0A128A157D220A128A1583127C
:101E36000313380883160313C200831203133908E9
:101E460083160313C300831203133A08831603137E
:101E5600C4004C0883120313A800831603134D080D
:101E660083120313A900831603134E088312031368
:101E7600AA0083160313420883120313AB008316CA
:101E86000313430883120313AC0083160313440899
:101E960083120313AD000A168A11C2240A128A1588
:101EA60083120313280883160313C2008312031335
:101EB600290883160313C300831203132A08831603
:101EC6000313C4004208F0004308F1004408F2007E
:101ED6000030F3008030F4003F30F5000A168A1512
:101EE600C8270A128A150318792F7A2F832FFF30F5
:101EF60083160313CA070318CB0AFF30CB07A22F9A
:101F0600831603134208F0004308F1004408F20068
:101F16000030F3002030F4004130F5000A168A152F
:101F2600C8270A128A15031C992F9A2FA22F01304F
:101F360083160313CA070318CB0A0030CB07831690
:101F460003135108803AFF0080307F02031DAD2F36
:101F56000D3050020318B02FB12FEA2F831603134A
:101F660050080A128A15DC200A128A1583120313F6
:101F76003808C8003908C9003A08CA00831603138E
:101F86004C0883120313CB00831603134D088312E8
:101F96000313CC00831603134E0883120313CD00DC
:101FA6000A128A1112200A128A158312031348088C
:101FB60083160313CC0083120313490883160313F5
:101FC600CD00831203134A0883160313CE0083162B
:101FD60003134B08803AFF0080307F02031DF52F64
:101FE6000A304A020318FA2F0A128A1148290A12DD
:101FF6008A117F290A128A11E72FFF1B0A288313E9
:102006007F1883170008840A0319FF0A0800103096
:102016008A000408840A82070034003480343F347E
:102026000034203441340034C834423400347A3425
:10203600443440341C3446345034C3344734243496
:1020460074344934973418344B34BC34BE344C346D
:102056006B346E344E340334153450347934AD3425
:102066006034F33449347134003480343F34CD3431
:10207600CC343D34D73423343C34123483343A34AC
:10208600B734D1343834C634273437343834863408
:102096003534C034D6343334CC342B343234703403
:1020A60089343034E734DB342E34E5343C341E34A2
:1020B6004234A2340D3401340034003400340A347E
:1020C6000034003400346434003400340034E8341E
:1020D6000334003400341034273400340034A03480
:1020E600863401340034403442340F3400348034B2
:1020F6009634983400340034E134F5340534003431
:10210600CA349A343B34253432342E34313466346E
:1021160020342034253464342034203420342534CB
:1021260032342E343134663400342034533431346E
:1021360020342034203453343234203420342034B4
:102146005334333400348312031307100330F20080
:102156009730F100F10BAD28F20BAD28B228013013
:102166000A168A15B2250A168A110A168A15CF2565
:102176000A168A11F100710883120313ED00033069
:10218600F2009730F100F10BC628F20BC628CB28D7
:102196008312031307140330F2009730F100F10B9A
:1021A600D228F20BD228D728080070087104031928
:1021B600DD28DE280D29F501F50AEC28013003108B
:1021C600F00DF10DFF3E031DE2280130F400740806
:1021D600F507F11FEF28F028E12871087302031DA7
:1021E600F62870087202031CF928FA2800297008DC
:1021F600F2027108031CF303F30201300310F10C21
:10220600F00CFF3E031D01290130F502031D0C29C8
:102216000D29F0287308F1007208F0000800F0009C
:10222600701C162917291B298312031308141E294B
:10223600831203130810F01C21292229242988144B
:1022460025298810701D282929292B2908152C29AC
:102256000811F01D2F2930293229881533298811B4
:10226600701E36293729392908163A290812F01E10
:102276003D293E294029881641298812701F442984
:1022860045294729081748290813F01F4B294C29C7
:102296004E2988174F2988130800F801F901752976
:1022A60078087307F6007408F5000318F50AF81F96
:1022B6005D29F5037508F700770883120313FF00FD
:1022C600760884000A168A1100200A168A110A1254
:1022D6008A1503200A168A110130F8070318F90A2D
:1022E6000030F90778087307F6007408F50003183C
:1022F600F50AF81F7F29F5037508F700770883129A
:102306000313FF00760884000A168A1100200A16B5
:102316008A11003A031D9029912953290800FB01CF
:10232600FC0176087704031999299A29D129FD0118
:10233600FD0AA82901300310F60DF70DFF3E031D17
:102346009E290130FA007A08FD07F71FAB29AC2950
:102356009D2901300310FB0DFC0DFF3E031DAD2929
:1023660077087902031DB92976087802031CBC296F
:10237600BD29C4297608F8027708031CF903F90277
:102386007B1401300310F70CF60CFF3E031DC52924
:102396000130FD02031DD029D129AC297C08F700A4
:1023A6007B08F60008008312031323082204210485
:1023B60020040319DF29E029232AA901A90AF02903
:1023C6000130A8000310A00DA10DA20DA30DA80BAE
:1023D600E5290130A8002808A907A31FF329F42935
:1023E600E32923082702031D022A22082602031DC9
:1023F600022A21082502031D022A20082402031CA2
:10240600052A062A142A2008A4022108031C210FE3
:10241600A5022208031C220FA6022308031C230F71
:10242600A70201300310A30CA20CA10CA00CFF3EC6
:10243600031D152A0130A902031D222A232AF42985
:102446002708A3002608A2002508A1002408A0004A
:102456000800F601F31F302A312A382AF209F30957
:10246600F20A0319F30AF601F60AF11F3B2A3C2A7F
:10247600412AF009F109F00A0319F10A70087104FA
:102486000319462A472A762AF501F50A552A013004
:102496000310F00DF10DFF3E031D4B2A0130F40031
:1024A6007408F507F11F582A592A4A2A7108730237
:1024B600031D5F2A70087202031C622A632A692AB6
:1024C6007008F2027108031CF303F30201300310D3
:1024D600F10CF00CFF3E031D6A2A0130F502031DC4
:1024E600752A762A592A760803197A2A7B2A802A97
:1024F600F209F309F20A0319F30A7308F1007208E4
:10250600F00008001A30F500F830F400F40B892AC0
:10251600F50B892A000030300A168A1537260A1666
:102526008A110730F5007D30F400F40B982AF50B7C
:10253600982A30300A168A1537260A168A1121304B
:10254600F400F40BA42A30300A168A1537260A1628
:102556008A112130F400F40BAE2A38300A168A1597
:1025660037260A168A111330F400F40BB82ABB2A50
:1025760008300A168A1537260A168A111330F4000F
:10258600F40BC32AC62A01300A168A1537260A16FC
:102596008A110730F5007D30F400F40BD02AF50BD4
:1025A600D02A06300A168A1537260A168A111330DB
:1025B600F400F40BDC2ADF2A0C300A168A153726BB
:1025C6000A168A111330F400F40BE72AEA2A0800E7
:1025D6000030FC000030FB000030FA000030F9004B
:1025E60073087204710470040319FA2AFB2A482B33
:1025F600FD01FD0A0B2B0130F8000310F00DF10D63
:10260600F20DF30DF80B002B0130F8007808FD07EA
:10261600F31F0E2B0F2BFE2A0130F8000310F90DC5
:10262600FA0DFB0DFC0DF80B112B73087702031D39
:10263600262B72087602031D262B71087502031DD0
:10264600262B70087402031C292B2A2B392B7008A1
:10265600F4027108031C710FF5027208031C720F55
:10266600F6027308031C730FF70279140130031086
:10267600F30CF20CF10CF00CFF3E031D3A2B01306B
:10268600FD02031D472B482B0F2B7C08F3007B080C
:10269600F2007A08F1007908F000080083120313AB
:1026A600A101F81F572B582B5F2BF709F809F70ADA
:1026B6000319F80AA101A10AFA1F622B632B6C2BDE
:1026C600F909FA09F90A0319FA0A0130FB007B082D
:1026D600A106A201A301770878040319732B742BB2
:1026E600AB2BA001A00A822B01300310F70DF80DC9
:1026F600FF3E031D782B0130FB007B08A007F81F67
:10270600852B862B772B01300310A20DA30DFF3EE0
:10271600031D872B78087A02031D932B770879020D
:10272600031C962B972B9E2B7708F9027808031C1F
:10273600FA03FA02221401300310F80CF70CFF3EDC
:10274600031D9F2B0130A002031DAA2BAB2B862B4A
:1027560021080319AF2BB02BB52BA209A309A20A96
:102766000319A30A2308F8002208F70008007308D3
:102776000319BE2BBF2BC62B720871047004031DF0
:10278600C52BC62BD92B0030F0000030F1000030ED
:10279600F200352C0130F5007508F30701300310FF
:1027A600F20CF10CF00CFF3E031DD22BFE3072052D
:1027B600031DDE2BDF2BCD2BF62B0130F500750824
:1027C600F3070130F007003003180130F10700303D
:1027D60003180130F20701300310F20CF10CF00C73
:1027E600FF3E031DEF2BFF307205031DFB2BFC2B59
:1027F600E02B072C0130F30201300310F00DF10D30
:10280600F20DFF3E031D002CF11B0A2C0B2C112C84
:10281600023073020318102C112CFD2B7318142C84
:10282600152C1B2CFF30F0057F30F105FF30F2052B
:102836000310F30C7308F500F601F70110300310CE
:10284600F50DF60DF70DFF3E031D222C7508F0045D
:102856007608F1047708F20474080319332C342C33
:10286600352CF2170800831203134108C5004208ED
:10287600C6004308C7000310460D470DC8004808A8
:10288600CE004E08031D482C492C522C0030C400A3
:102896000030C3000030C2000030C100C12C410826
:1028A600C5004208C6004308C70017300310C70C0E
:1028B600C60CC50CFF3E031D592C4508C800480828
:1028C600C900C217FF30C105FF30C2050030C3057D
:1028D6004108CA004208CB004308CC00CD018E3027
:1028E600CE02CE1F772C782C922C4E08803A8F3E43
:1028F60003187E2C7F2C802C492C01300310CD0C24
:10290600CC0CCB0CCA0CFF3E031D812C0130C5003C
:102916004508CE07031D902C912C802CA92C18302D
:102926004E02031C972C982CA42C492C0130C50070
:102936000310CA0DCB0DCC0DCD0DC50B9B2C013054
:10294600CE024E08031DA82CA92C992C4908031960
:10295600AD2CAE2CB92CCA09CB09CC09CD09CA0AB3
:102966000319CB0A0319CC0A0319CD0A4D08C40072
:102976004C08C3004B08C2004A08C1000800831275
:1029860003132808AE002908AF002A08B000031078
:102996002F0D300DB1003108B2003208031DD42CC2
:1029A600D52CDC2C0030A8000030A9000030AA008D
:1029B600A62D2B08AE002C08AF002D08B000031082
:1029C6002F0D300DB1003108B7003708031DEC2C70
:1029D600ED2CF42C0030A8000030A9000030AA002D
:1029E600A62D37087B3EAE002E08B2072808AE009B
:1029F6002908AF002A08B00010300310B00CAF0C45
:102A0600AE0CFF3E031D002D2E08B1003108B700A5
:102A16002B08AE002C08AF002D08B00010300310B4
:102A2600B00CAF0CAE0CFF3E031D122D2E08B100EC
:102A36003108B7068030AE002E08B705A917AC17C7
:102A4600FF30AB05FF30AC050030AD050030B300FC
:102A56000030B4000030B5000730AE002E08B600D6
:102A6600281C362D372D472D2B08B3072C080311AC
:102A760003182C0A0319402DB4072D080311031857
:102A86002D0A0319472DB50701300310AA0CA90C0E
:102A9600A80CFF3E031D482D01300310AB0DAC0DF5
:102AA600AD0DFF3E031D502D0130B602031D5C2DFA
:102AB6005D2D332D0930AE002E08B600281C642D7E
:102AC600652D752D2B08B3072C08031103182C0A46
:102AD60003196E2DB4072D08031103182D0A0319C7
:102AE600752DB50701300310AA0CA90CA80CFF3EE2
:102AF600031D762D01300310B50CB40CB30CFF3E4C
:102B0600031D7E2D0130B602031D8A2D8B2D612DEE
:102B16003308F0003408F1003508F2003208AE0040
:102B26002E08F3003708AF002F08F4000A168A11A2
:102B3600BA230A168A11700883120313A8007108B3
:102B4600A9007208AA000800703084000008F60088
:102B5600840A0008F700840A0008F800840A0008BE
:102B6600F9000310780D790DFA007A088312031321
:102B7600A5002508031DC02DC12DCA2D0030F30068
:102B86000030F2000030F1000030F000D22E733039
:102B960084000008F600840A0008F700840A00088A
:102BA600F800840A0008F9000310780D790DFA0080
:102BB6007A08A4002408031DE12DE22DE32DC12D82
:102BC6007030840000308004840A00308004840A57
:102BD60080308004840A0030800470308400FF3026
:102BE6008005840AFF308005840AFF308005840A48
:102BF600003080057330840000308004840A003081
:102C06008004840A80308004840A00308004733093
:102C16008400FF308005840AFF308005840AFF3077
:102C26008005840A003080050030A3000030A20031
:102C36000030A1000030A0007F30A502A03024079C
:102C4600F6007608A5022030F6007608A4000130CA
:102C5600F6000310A00DA10DA20DA30DF60B2C2E50
:102C6600733084000008F600840A0008F700840A1E
:102C76000008F800840A0008F90070308400000893
:102C8600FA00840A0008FB00840A0008FC00840A93
:102C96000008FD0079087D02031D5B2E78087C0282
:102CA600031D5B2E77087B02031D5B2E76087A02D6
:102CB600031C5E2E5F2E822E733084000008F60001
:102CC600840A0008F700840A0008F800840A00084D
:102CD600F9007030840076088002840A7708031CA5
:102CE600770F8002840A7808031C780F8002840A12
:102CF6007908031C790A800203308402201470309C
:102D060084000310800D840A800D840A800D840AD5
:102D1600800D8403840384030130A402031D942ED2
:102D2600952E2A2EA51F982E992EB32E2508803A69
:102D36009F3E03189F2EA02EA12EC12D01300310F9
:102D4600A30CA20CA10CA00CFF3E031DA22E013069
:102D5600F6007608A507031DB12EB22EA12ECA2EA7
:102D660020302502031CB82EB92EC52EC12D0130E8
:102D7600F6000310A00DA10DA20DA30DF60BBC2E9F
:102D86000130A5022508031DC92ECA2EBA2E230816
:102D9600F3002208F2002108F1002008F0000800E4
:102DA6000A168A1557260A168A110A168A15AD2595
:102DB6000A168A110A168A15D8250A168A110A16BB
:102DC6008A15BF250A168A110A168A1185220A163D
:102DD6008A110A128A1105200A168A110A168A15FC
:102DE60096270A168A110A168A1564270A168A1160
:102DF6000A168A11A6200A168A110A128A110520B5
:102E06000A168A11F401F40A01300A168A15772681
:102E16000A168A118930F3008030F4000A168A11E6
:102E260050210A168A11903083120313A800A0308D
:102E3600A9003C30AA006E08EA00EB016A08F80017
:102E46006B08F9000A168A159B260A168A11780855
:102E560083120313AB007908AC007A08AD000A169A
:102E66008A11C2240A168A118312031328088316AC
:102E76000313A30083120313290883160313A40064
:102E8600831203132A0883160313A5003430831212
:102E96000313A800FA30A9003F30AA006D08EA0023
:102EA600EB016A08F8006B08F9000A168A159B26DA
:102EB6000A168A11780883120313AB007908AC004E
:102EC6007A08AD000A168A11C2240A168A118312DC
:102ED6000313280883160313A0008312031329087B
:102EE60083160313A100831203132A088316031300
:102EF600A200773083120313EA006A08DB00831608
:102F06000313230883120313DC0083160313240818
:102F160083120313DD00831603132508831203139C
:102F2600DE006F08EB00EC016B08DF006C08E000C8
:102F360083160313200883120313E1008316031379
:102F4600210883120313E200831603132208831257
:102F56000313E300A6300A128A1528250A168A11D9
:102F6600F401F40A02300A168A1577260A168A111F
:102F7600A630F3000030F4000A168A1150210A1612
:102F86008A118A30F1008030F2000A168A150A2763
:102F96000A168A110D300A168A15EC250A168A11A8
:102FA6000A300A168A15EC250A168A11A630F1008F
:102FB6000030F2000A168A150A270A168A110D3001
:102FC6000A168A15EC250A168A110A300A168A1577
:102FD600EC250A168A11063083120313EC0013300F
:102FE600EB00AD30EA00EA0BF62FEB0BF62FEC0BFD
:0A2FF600F62FF12E0A128A110028AE
:103B5A000C308316031399000800F00070088312D2
:103B6A0003139300080083160313141CBD2DBE2DE6
:103B7A00B82D0800831203139817181398121816F1
:103B8A009A01080064008001840A040603190034BB
:103B9A000406C82D0A168A15B8250A168A1583122C
:103BAA00031313080800831603139813181398169F
:103BBA00181218119810181008007208710470046D
:103BCA000319E82DE92DEB2D8030F2060800F000EC
:103BDA0083160313981CF22DF32DED2D7008831212
:103BEA00031399000800F100F0013A30710203183A
:103BFA00FF2D002E082E30307102031C052E062ED2
:103C0A00082EF001F00A700C0800F3008316031363
:103C1A008712731D112E122E162E72089400871504
:103C2A001A2E7008720494008711730871048312A3
:103C3A0003139400080083120313A700A601271C8C
:103C4A00272E282E2C2E2408A5002508A6070310A7
:103C5A00A40D0310A70C2708031D342E352E242E7D
:103C6A0026080800F30083120313091073080A16C2
:103C7A008A1112210A168A15831203138914452EF2
:103C8A00462E00008312031389104B2E4C2E00007F
:103C9A000330F2009730F100F10B512EF20B512E46
:103CAA00562E080083160317880189018316031309
:103CBA00880189018312031388018901831603137A
:103CCA0087100711071083120313071587140714A7
:103CDA00F001F101F20120300A168A150A260A16A5
:103CEA008A150800F6007603031D7C2E7D2E892E88
:103CFA007408803EF5007508F70077080A168A15D9
:103D0A0037260A168A159A2E02307606031D8E2E3B
:103D1A008F2E9A2E7408C03EF5007508F7007708B2
:103D2A000A168A1537260A168A150800FD01F91F90
:103D3A009F2EA02EA72EF809F909F80A0319F90AE5
:103D4A00FD01FD0A7808F0007908F100F2018E30D1
:103D5A00FB007B08F3007D08FC007C08F4000A16CF
:103D6A008A11BA230A168A157008F8007108F90030
:103D7A007208FA0008008312031357085604550400
:103D8A000319C82EC92ECB2E8030D7065808C80072
:103D9A005908C9005A08CA005508CB005608CC0071
:103DAA005708CD000A128A1112200A168A158312A0
:103DBA0003134808D5004908D6004A08D700080066
:103DCA00F401F501701CEA2EEB2EF12E7208F407AD
:103DDA000318F50A7308F50701300310F20DF30D05
:103DEA00FF3E031DF22E01300310F10CF00CFF3ED2
:103DFA00031DF92E70087104031D042F052FE72EE9
:103E0A007508F1007408F0000800F401212F740805
:103E1A007107840072080318720AFF000A168A11D1
:103E2A0000200A168A150A168A15EC250A168A151A
:103E3A000130F3007308F4077408710784007208EC
:103E4A000318720A83120313FF000A168A1100204C
:103E5A000A168A15003A031D332F342F0C2F080037
:103E6A008E30FC007C08FD00472F01300310FB0C4C
:103E7A00FA0CF90CF80CFF3E031D3B2F0130FC0035
:103E8A007C08FD07FF307B05031D4C2F4D2F3A2F71
:103E9A007808F0007908F1007A08F2007D08FC0041
:103EAA007C08F300F4010A168A11BA230A168A1545
:103EBA007008F8007108F9007208FA000800831205
:103ECA00031387100330F2009730F100F10B6B2FC8
:103EDA00F20B6B2F702F01300A168A15B2250A16BB
:103EEA008A150A168A15CF250A168A15F10071084D
:103EFA0083120313EE000330F2009730F100F10B46
:103F0A00842FF20B842F892F831203138714033013
:103F1A00F2009730F100F10B902FF20B902F952FB2
:103F2A0008008312031307110330F2009730F100DF
:103F3A00F10B9D2FF20B9D2FA22F01300A168A1525
:103F4A00B2250A168A150A168A15CF250A168A155F
:103F5A00F100710883120313EF000330F200973067
:103F6A00F100F10BB62FF20BB62FBB2F83120313FE
:103F7A0007150330F2009730F100F10BC22FF20B54
:103F8A00C22FC72F0800F21FCB2FCC2FD92F7008B2
:103F9A00003CF0007108031C710F003CF10072082C
:103FAA00031C720F803CF200F51FDC2FDD2FEA2F75
:103FBA007308003CF3007408031C740F003CF400FF
:103FCA007508031C750F803CF5008030F2068030BE
:103FDA00F50675087202031DF82F74087102031D95
:103FEA00F82F730870020318FB2FFC2FFE2F031003
:063FFA00FF2F0314080074
:04400E00D620FF3F7A
:00000001FF
