:020000040000FA
:060000000A128A11ED2F27
:1000080000300A168A119D200A128A1101300A1638
:100018008A119D200A128A110800831203134808C6
:10002800CE004908CF004A08D00003104F0D500DEC
:10003800D1005108D4004B08CE004C08CF004D0821
:10004800D00003104F0D500DD1005108D3005408B3
:1000580003192F283028402853085402031835283C
:10006800362847285308CE005408CE0219304E02CD
:10007800031C3F28402847284B08C8004C08C900E3
:100088004D08CA004629530803194B284C285C28F8
:10009800540853020318512852285D285408CE00EA
:1000A8005308CE0219304E02031C5B285C285D28D9
:1000B80046290630CE004E08D200CA1F642865289B
:1000C8006628D217CD1F69286A286B285217C917C6
:1000D800FF30C805FF30C9050030CA05CC17FF300E
:1000E800CB05FF30CC050030CD055308540203186A
:1000F8007E287F28AB2801300310CB0DCC0DCD0D09
:10010800FF3E031D80280130D3025308540603190B
:100118008E288F28A4280130D20252080739031DDF
:10012800962897287F28A42801300310CA0CC90CE8
:10013800C80CFF3E031D99280130CE004E08D40795
:1001480054085306031DA928AA289828DC2854080F
:1001580053020318B028B128DC2801300310C80D59
:10016800C90DCA0DFF3E031DB2280130D402530841
:1001780054060319C028C128D6280130D2025208D3
:100188000739031DC828C928B128D628013003100B
:10019800CD0CCC0CCB0CFF3E031DCB280130CE0080
:1001A8004E08D30754085306031DDB28DC28CA2849
:1001B800D21FDF28E028F028FF30C806FF30C90624
:1001C800FF30CA060130C807003003180130C907DC
:1001D800003003180130CA07521FF328F4280429F5
:1001E800FF30CB06FF30CC06FF30CD060130CB0701
:1001F800003003180130CC07003003180130CD0758
:10020800D2014808CB07490803110318490A031902
:100218000E29CC074A08031103184A0A031915299D
:10022800CD07CD1F182919292B29FF30CB06FF3000
:10023800CC06FF30CD060130CB0700300318013063
:10024800CC07003003180130CD07D201D20A4B0881
:10025800F0004C08F1004D08F2005408CE004E089A
:10026800F3005208CF004F08F4000A168A114324FD
:100278000A128A11700883120313C8007108C90092
:100288007208CA00080083160313340833043204C2
:1002980003194F295029E029320883120313C1009A
:1002A80083160313330883120313C2008316031340
:1002B800340883120313C3000A168A11BF240A12D2
:1002C8008A11831203134408430442044104031DA2
:1002D8006E296F29E029831603133108803AFF003D
:1002E80080307F02031D7A2902303002031C7D29E9
:1002F8007E29E029831603132808F0002908F10055
:100308002A08F2007030F3008930F4004030F5001C
:100318000A168A11EF200A128A11031894299529BE
:100328009E29F73083160313B0070318B10AFF306C
:10033800B107A629F83083160313B0070318B10ACA
:10034800FF30B10730080A128A157D220A128A1175
:1003580083120313380883160313A80083120313A8
:10036800390883160313A900831203133A08831666
:100378000313AA003208F0003308F1003408F20031
:100388002808F3002908F4002A08F5000A128A153B
:100398001F200A128A11730883160313AF0072080C
:1003A800AE007108AD007008AC000030B20000303B
:1003B800B3000030B4004F2A8316031332088312A7
:1003C8000313C10083160313330883120313C200F7
:1003D80083160313340883120313C3000A168A1101
:1003E800BF240A128A1183120313440883160313C5
:1003F800AF0083120313430883160313AE0083125E
:100408000313420883160313AD0083120313410834
:1004180083160313AC002F08FB002E08FA002D08E2
:10042800F9002C08F8000A168A15D1270A128A1131
:10043800780883120313D5007908D6007A08D70004
:1004480083160313320883120313D8008316031389
:10045800330883120313D900831603133408831255
:100468000313DA000A168A155C270A128A11831206
:100478000313550883160313B20083120313560897
:1004880083160313B3008312031357088316031349
:10049800B400B001B101B801B80A380883120313D7
:1004A800E10001300310E10DFF3E031D562A031041
:1004B800610D4F3E84000A168A110A200A128A1119
:1004C800E2000A168A110A200A128A11E3000A16A3
:1004D8008A110A200A128A11E4000A168A110A20CF
:1004E8000A128A11E5006508831603132F02031DFB
:1004F800932A831203136408831603132E02031D21
:10050800932A831203136308831603132D02031D12
:10051800932A831203136208831603132C02031809
:10052800962A972A982AA62A013083120313E100F3
:10053800610883160313B8070A303806031DA52A75
:10054800A62A512A3808360783120313E1008316B6
:10055800031337080318370A83120313E2008316BC
:1005680003133008831203136107E3008316031390
:1005780031080318310A831203136207E400630881
:1005880083160313A6028312031364088316031346
:10059800031CA703A702360837040319D42AD52A4F
:1005A800DB2AFF30A6070318A70AFF30A707033086
:1005B800240583120313E100003083160313250575
:1005C80083120313E200610862040319EC2AED2A7E
:1005D8000A2BFF3083160313A6070318A70AFF3058
:1005E800A7070A2B203083120313E1008316031395
:1005F80035088400831203136108831380000130D7
:10060800E100610883160313B507ED2A8316031367
:100618002708803AFF0080307F02031D152B013028
:1006280026020318182B192BF62A033083160313F6
:10063800240583120313E1000030831603132505F4
:1006480083120313E2006108620403192C2B2D2B7B
:10065800D12B2D30E1008316031335088400831253
:1006680003136108831380000130E10061088316D9
:100678000313B507D12B380883120313E1000130A7
:100688000310E10DFF3E031D442B0310610D4F3E87
:1006980084000A168A110A200A128A11F0000A1622
:1006A8008A110A200A128A11F1000A168A110A20F0
:1006B8000A128A11F2000A168A110A200A128A11ED
:1006C800F300831603132F08F7002E08F6002D08F1
:1006D800F5002C08F4000A168A1174230A128A11EC
:1006E800730883160313AB007208AA007108A900E7
:1006F8007008A800003083120313A3000030A20082
:100708000030A1000A30A000831603132B088312BF
:100718000313A700831603132A0883120313A600E2
:1007280083160313290883120313A50083160313E2
:10073800280883120313A4000A168A115F220A12DA
:100748008A1183120313230883160313AB00831241
:100758000313220883160313AA0083120313210824
:1007680083160313A90083120313200883160313A7
:10077800A8002808303E83120313E10083160313F0
:100788003508840083120313610883138000013045
:10079800E100610883160313B507013083160313BC
:1007A800B802380A031DD92BDA2B3F2BF42B303033
:1007B80083120313E10083160313350884008312A0
:1007C80003136108831380000130E1006108831678
:1007D8000313B507FF30B0070318B10AFF30B1079C
:1007E8003108803AFF0080307F02031DFD2B013065
:1007F80030020318002C012CDB2B83160313370857
:10080800803AFF0080307F02031D0C2C093036022D
:10081800031C0F2C102C192C083083120313E10031
:10082800610883160313B800232C831603133608B4
:1008380083120313E100610883160313B800380814
:1008480083120313E100E201610883160313B60261
:1008580083120313620883160313031CB703B7023A
:1008680038080319382C392C4C2C2E3083120313DA
:10087800E10083160313350884008312031361080B
:10088800831380000130E100610883160313B50764
:1008980038080A128A157D220A128A118312031354
:1008A800380883160313A00083120313390883162C
:1008B8000313A100831203133A0883160313A2003B
:1008C800200883120313AB00831603132108831235
:1008D8000313AC0083160313220883120313AD001D
:1008E80083160313320883120313A8008316031315
:1008F800330883120313A9008316031334088312E1
:100908000313AA000A168A11EF250A128A11831204
:1009180003132808C1002908C2002A08C3000A16C0
:100928008A11BF240A128A118312031344088316FA
:100938000313AF0083120313430883160313AE0097
:1009480083120313420883160313AD0083120313A3
:10095800410883160313AC009E2D38088312031335
:10096800E10001300310E10DFF3E031DB62C03101A
:10097800610D4F3E84000A168A110A200A128A1154
:10098800F0000A168A110A200A128A11F1000A16C2
:100998008A110A200A128A11F2000A168A110A20FC
:1009A8000A128A11F300831603132F08F7002E0882
:1009B800F6002D08F5002C08F4000A168A11742395
:1009C8000A128A11730883160313AB007208AA006F
:1009D8007108A9007008A800003083120313A3004F
:1009E8000030A2000030A1000A30A00083160313D3
:1009F8002B0883120313A700831603132A088312F4
:100A08000313A60083160313290883120313A500F2
:100A180083160313280883120313A4000A168A11E5
:100A28005F220A128A118312031323088316031301
:100A3800AB0083120313220883160313AA00831240
:100A48000313210883160313A90083120313200834
:100A580083160313A8002808303E83120313E1000D
:100A68008316031335088400831203136108831364
:100A780080000130E100610883160313B5073808C8
:100A880083120313E10001300310E10DFF3E031D43
:100A9800482D0310610D4F3E84000A168A110A2062
:100AA8000A128A11A0000A168A110A200A128A114B
:100AB800A1000A168A110A200A128A11A2000A162F
:100AC8008A110A200A128A11A300831603132F0819
:100AD80083120313A700831603132E08831203132C
:100AE800A600831603132D0883120313A50083168B
:100AF80003132C0883120313A4000A168A115F2219
:100B08000A128A1183120313230883160313AF00F2
:100B180083120313220883160313AE0083120313F0
:100B2800210883160313AD008312031320088316CC
:100B38000313AC000130B802380A031DA42DA52DFB
:100B4800B12CBF2D303083120313E1008316031339
:100B58003508840083120313610883138000013071
:100B6800E100610883160313B507FF30B6070318C1
:100B7800B70AFF30B70736083704031DC42DC52D43
:100B8800A62DCF2F83160313230884008313000890
:100B980083120313E100840A0008E2006108831647
:100BA8000313AC0083120313620883160313AD000A
:100BB8000030AD1BFF30AE00AF00023083120313CC
:100BC800E100610883160313A307AF1FEC2DED2D79
:100BD800FC2D0330A4040030A504AC09AD09AE090E
:100BE800AF09AC0A0319AD0A0319AE0A0319AF0A13
:100BF80036083704031D012E022E102E2F082E044E
:100C08002D042C04031D092E0A2E102E0130B607C0
:100C18000318B70A0030B707B801B80A38088312B2
:100C28000313E10001300310E10DFF3E031D172EF1
:100C38000310610D4F3E84000A168A110A200A1219
:100C48008A11E2000A168A110A200A128A11E300A0
:100C58000A168A110A200A128A11E4000A168A1151
:100C68000A200A128A11E5006508831603132F0269
:100C7800031D542E831203136408831603132E02D4
:100C8800031D542E831203136308831603132D02C6
:100C9800031D542E831203136208831603132C02B8
:100CA8000318572E582E592E672E0130831203131E
:100CB800E100610883160313B8070A303806031DDC
:100CC800662E672E122E3708803A803C031D6E2E42
:100CD800360838020318712E722E7D2E83160313E0
:100CE800360883120313E100610883160313B80062
:100CF800A12E831603133708803A83120313E100E9
:100D080080306102031D8C2E8316031338083602C7
:100D180003188F2E902EA12E8316031338088312E2
:100D28000313E100E201610883160313B60083127E
:100D38000313620883160313B700831603132608E8
:100D480027040319A82EA92EC32E033024058312C5
:100D58000313E100003083160313250583120313E0
:100D6800E200610862040319BA2EBB2EC32EFF30BD
:100D780083160313A6070318A70AFF30A7078316CD
:100D88000313251FC82EC92EEC2E3708803A83126C
:100D98000313E100831603132708803A8312031311
:100DA8006102031DDB2E831603132608360203187F
:100DB800DE2EDF2EE82E831603133608A602370828
:100DC800031CA703A702EC2E83160313A601A70191
:100DD8002708803A803C031DF32E260838020318A2
:100DE800F62EF72E0B2F83160313380883120313DE
:100DF800E100E201610883160313A60283120313BC
:100E0800620883160313031CA703A7020F2F831678
:100E18000313A601A701260827040319142F152F69
:100E2800342F203083120313E1008316031335088F
:100E38008400831203136108831380000130E100EA
:100E4800610883160313B507FF30A6070318A70A1E
:100E5800FF30A70726082704031D332F342F152F2B
:100E68000330240583120313E100003083160313B3
:100E7800250583120313E200610862040319452F54
:100E8800462FBF2F2D30E100831603133508840049
:100E9800831203136108831380000130E1006108A5
:100EA80083160313B507BF2F003083120313A30063
:100EB8000030A2000030A1000A30A00083160313FE
:100EC800360883120313E10001300310E10DFF3EE1
:100ED800031D692F0310610D4F3E84000A168A1105
:100EE8000A200A128A11F0000A168A110A200A1228
:100EF8008A11F1000A168A110A200A128A11F200D0
:100F08000A168A110A200A128A11F300831603139B
:100F18002F08F7002E08F6002D08F5002C08F4001D
:100F28000A168A1174230A128A117308831203138A
:100F3800A7007208A6007108A5007008A4000A1688
:100F48008A115F220A128A11831203132008303E85
:100F5800E200620883160313B800380883120313EB
:100F6800E100831603133508840083120313610814
:100F780083138000512FFF3083160313B60703181D
:100F8800B70AFF30B707360A031DCE2F370A031DED
:100F9800CE2FCF2F582F01308312DB07FF305B078E
:100FA80084000A168A110A200A128A11E1006108CF
:100FB80083160313B8003808031DE32FE62F0A121F
:100FC8008A15362D83160313350884008313800190
:100FD800080083120313EA01EB01EC01ED0183130E
:100FE800B9308400CD300A168A158E260A128A1165
:080FF80083010A168A114B2D3A
:101002008316031788018901831603138801890156
:1010120083120313880189018316031387100711B2
:101022008312031307158714F001F101F201203036
:101032000A168A15D1260A128A1508007008F600C7
:101042007108F7007208F8000310770D780DF900A7
:10105200790883120313A5002508031D31283228BD
:101062003B280030F3000030F2000030F100003085
:10107200F000DB287308F6007408F7007508F80022
:101082000310770D780DF9007908A4002408031DD8
:101092004B284C284D283228F117FF30F005FF303D
:1010A200F1050030F205F417FF30F305FF30F405C7
:1010B2000030F5050030A3000030A2000030A1008E
:1010C2000030A0007F30A50298302407F600760891
:1010D200A5021830F6007608A4000130F6000310CD
:1010E200A00DA10DA20DA30DF60B702875087202BA
:1010F200031D812874087102031D81287308700280
:10110200031C8428852890287308F0027408031CA5
:10111200740FF1027508031C750AF20220140130E3
:101122000310F00DF10DF20DFF3E031D9128013069
:10113200A402031D9D289E286E28A51FA128A2286F
:10114200BC282508803A973E0318A828A928AA286F
:10115200322801300310A30CA20CA10CA00CFF3EFC
:10116200031DAB280130F6007608A507031DBA2837
:10117200BB28AA28D32818302502031CC128C2285C
:10118200CE2832280130F6000310A00DA10DA20DC9
:10119200A30DF60BC5280130A5022508031DD22890
:1011A200D328C3282308F3002208F2002108F10003
:1011B2002008F000080083120313C7006E304702B4
:1011C200031CE428E528BC290330BB003B08A4002B
:1011D2004708BC00BD013C08F2003D08F300643042
:1011E200F0000030F1000A168A1161210A128A15F4
:1011F2007108F9007008F8000A30F6000030F700B4
:101202000A168A111B220A128A1576080A168A15EC
:10121200E7260A128A15433E84000A168A110A201A
:101222000A128A1583120313A8000A168A110A20C9
:101232000A128A15A9000A168A110A200A128A15A8
:10124200AA000330BE003E08A4004708BF00C00148
:101252003F08F8004008F9006430F6000030F7005B
:101262000A168A111B220A128A1576080A168A158C
:10127200E7260A128A155E3E84000A168A110A209F
:101282000A128A1583120313AB000A168A110A2066
:101292000A128A15AC000A168A110A200A128A1545
:1012A200AD000A168A11EF250A128A15831203135A
:1012B2002808C4002908C5002A08C6000330BB005C
:1012C2003B08A4004708BC00BD013C08F2003D08F1
:1012D200F3000A30F0000030F1000A168A11612191
:1012E2000A128A1570080A168A15E7260A128A1542
:1012F200283E84000A168A110A200A128A158312CD
:101302000313A8000A168A110A200A128A15A900D4
:101312000A168A110A200A128A15AA004408AB008A
:101322004508AC004608AD000A168A11EF250A12DC
:101332008A15831203132808C1002908C2002A084B
:10134200C3000030A8000030A9003F30AA004108C5
:10135200AB004208AC004308AD000A168A11EF2523
:101362000A128A15831203132808B8002908B90043
:101372002A08BA007C2A0B304702031CC129C22961
:10138200492A0330BB003B08A4004708BC00BD014A
:101392003C08F2003D08F3000A30F0000030F10092
:1013A2000A168A1161210A128A1570080A168A150C
:1013B200E7260A128A15283E84000A168A110A2094
:1013C2000A128A1583120313A8000A168A110A2028
:1013D2000A128A15A9000A168A110A200A128A1507
:1013E200AA000330BE003E08A4004708BF00C001A7
:1013F2003F08F8004008F9000A30F6000030F70014
:101402000A168A111B220A128A1576080A168A15EA
:10141200E7260A128A15433E84000A168A110A2018
:101422000A128A1583120313AB000A168A110A20C4
:101432000A128A15AC000A168A110A200A128A15A3
:10144200AD000A168A11EF250A128A1583120313B8
:101452002808C4002908C5002A08C6000030A800D0
:101462000030A9003F30AA004408AB004508AC0098
:101472004608AD000A168A11EF250A128A15831250
:1014820003132808B8002908B9002A08BA007C2AE0
:101492000030A8000030A9003F30AA000330BB0092
:1014A2003B08A40047080A168A15E7260A128A157D
:1014B200283E84000A168A110A200A128A1583120B
:1014C2000313AB000A168A110A200A128A15AC000D
:1014D2000A168A110A200A128A15AD000A168A1102
:1014E200EF250A128A15831203132808B800290867
:1014F200B9002A08BA00080083120313C000C01FF3
:10150200832A842AD72BC009C00A4008803A123E97
:10151200031C8C2A8D2A452B0330BB003B08A400F8
:101522004008F200F301F21BF3036430F0000030D4
:10153200F1000A168A11B5220A128A157108FA00F8
:101542007008F9000A30F7000030F8000A168A1114
:10155200DA230A128A1577080A168A15E7260A126A
:101562008A15433E84000A168A110A200A128A1535
:1015720083120313A8000A168A110A200A128A1576
:10158200A9000A168A110A200A128A15AA00033033
:10159200BC003C08A4004008F900FA01F91BFA0358
:1015A2006430F7000030F8000A168A11DA230A12B2
:1015B2008A1577080A168A15E7260A128A155E3EE8
:1015C20084000A168A110A200A128A15831203134A
:1015D200AB000A168A110A200A128A15AC000A16F2
:1015E2008A110A200A128A15AD000A168A11EF25FD
:1015F2000A128A15831203132808BD002908BE00A7
:101602002A08BF000330BB003B08A4004008F200D8
:10161200F301F21BF3030A30F0000030F1000A1666
:101622008A11B5220A128A1570080A168A15E72647
:101632000A128A15283E84000A168A110A200A1202
:101642008A1583120313A8000A168A110A200A12A5
:101652008A15A9000A168A110A200A128A15AA00F6
:101662003D08AB003E08AC003F08AD000A168A11E7
:10167200EF250A128A15831203132808B8002908D5
:10168200B9002A08BA00272D4008803A753E031C8B
:101692004B2B4C2BB62B0330BB003B08A40040085D
:1016A200F200F301F21BF3030A30F0000030F10004
:1016B2000A168A11B5220A128A1570080A168A15A4
:1016C200E7260A128A15283E84000A168A110A2081
:1016D2000A128A1583120313A8000A168A110A2015
:1016E2000A128A15A9000A168A110A200A128A15F4
:1016F200AA000330BC003C08A4004008F900FA012B
:10170200F91BFA030A30F7000030F8000A168A11B2
:10171200DA230A128A1577080A168A15E7260A12A8
:101722008A15433E84000A168A110A200A128A1573
:1017320083120313AB000A168A110A200A128A15B1
:10174200AC000A168A110A200A128A15AD000A167E
:101752008A11EF250A128A15831203132808B8008A
:101762002908B9002A08BA00272D0330BB003B081C
:10177200A40040080A168A15E7260A128A15283E8E
:1017820084000A168A110A200A128A158312031388
:10179200B8000A168A110A200A128A15B9000A1616
:1017A2008A110A200A128A15BA00272D4008803AA7
:1017B200123E031CDD2BDE2B962C0330BB003B08B4
:1017C200A4004008F200F301F21BF3036430F000BE
:1017D2000030F1000A168A11B5220A128A15710820
:1017E200FA007008F9000A30F7000030F8000A1613
:1017F2008A11DA230A128A1577080A168A15E72649
:101802000A128A151C3E84000A168A110A200A123C
:101812008A1583120313A8000A168A110A200A12D3
:101822008A15A9000A168A110A200A128A15AA0024
:101832000330BC003C08A4004008F900FA01F91B7F
:10184200FA036430F7000030F8000A168A11DA232E
:101852000A128A1577080A168A15E7260A128A15C5
:10186200373E84000A168A110A200A128A15831248
:101872000313AB000A168A110A200A128A15AC0059
:101882000A168A110A200A128A15AD000A168A114E
:10189200EF250A128A15831203132808BD002908AE
:1018A200BE002A08BF000330BB003B08A40040086A
:1018B200F200F301F21BF3030A30F0000030F100F2
:1018C2000A168A11B5220A128A1570080A168A1592
:1018D200E7260A128A15013E84000A168A110A2096
:1018E2000A128A1583120313A8000A168A110A2003
:1018F2000A128A15A9000A168A110A200A128A15E2
:10190200AA003D08AB003E08AC003F08AD000A1635
:101912008A11EF250A128A15831203132808B800C8
:101922002908B9002A08BA00272D4008803A753ED6
:10193200031C9C2C9D2C072D0330BB003B08A400EC
:101942004008F200F301F21BF3030A30F00000300A
:10195200F1000A168A11B5220A128A1570080A16AF
:101962008A15E7260A128A15013E84000A168A1190
:101972000A200A128A1583120313A8000A168A1172
:101982000A200A128A15A9000A168A110A200A12C6
:101992008A15AA000330BC003C08A4004008F900E4
:1019A200FA01F91BFA030A30F7000030F8000A16B0
:1019B2008A11DA230A128A1577080A168A15E72687
:1019C2000A128A151C3E84000A168A110A200A127B
:1019D2008A1583120313AB000A168A110A200A120F
:1019E2008A15AC000A168A110A200A128A15AD005D
:1019F2000A168A11EF250A128A1583120313280880
:101A0200B8002908B9002A08BA00272D0330BB0004
:101A12003B08A40040080A168A15E7260A128A150E
:101A2200013E84000A168A110A200A128A158312BC
:101A32000313B8000A168A110A200A128A15B9007D
:101A42000A168A110A200A128A15BA000800831699
:101A52000313B5005C3083120313E100610883169F
:101A62000313A3000A128A11CF2F25303806031957
:101A72003B2D3C2D502D380883120313E1008316B1
:101A82000313350884008312031361088313800053
:101A92000130E100610883160313B507332DA60157
:101AA200A701A401A501831203135B0884000A168F
:101AB2008A110A200A128A150A168A15BF260A12E4
:101AC2008A15031C652D662DB02D83160313A601FE
:101AD200A7010A30F0000030F10083160313270833
:101AE200F3002608F2000A168A1581270A128A15BF
:101AF200710883160313A7007008A600831203134C
:101B02005B0884000A168A110A200A128A15D03E3E
:101B1200E100FF3003180030E2006108831603136E
:101B2200A6070318A70A8312031362088316031376
:101B3200A707013083120313E1006108DB075B088A
:101B420084000A168A110A200A128A150A168A15B0
:101B5200BF260A128A150318AF2DB02D6A2D8312E3
:101B620003135B0884000A168A110A200A128A15D6
:101B72002E3A031DBD2DBE2D142E831603132517D9
:101B8200013083120313E1006108DB07831603139C
:101B9200B601B701022E0A30F0000030F1008316C0
:101BA20003133708F3003608F2000A168A15812754
:101BB2000A128A15710883160313B7007008B6005B
:101BC200831203135B0884000A168A110A200A1280
:101BD2008A15D03EE100FF3003180030E2006108B0
:101BE20083160313B6070318B70A83120313620896
:101BF20083160313B707013083120313E100610850
:101C0200DB0783125B0884000A168A110A200A1273
:101C12008A150A168A15BF260A128A150318122E69
:101C2200132ECC2D1E2E83160313B601B7012516D3
:101C32001E2E831603132515442E0130831203131F
:101C4200DB07FF305B0784000A168A110A200A129A
:101C52008A1583160313B80083120313E100E2010D
:101C62006208003A0319362E332D6108003A03192F
:101C7200FD2F643A0319442E023A03191A2E0F3A21
:101C82000319442E332D00308316031324058312C7
:101C92000313E10007308316031325058312031390
:101CA200E200610862040319572E5A2E0A128A11A1
:101CB200C62D83160313251E5F2E602E642E06305A
:101CC200B6000030B7002308840083130008B20076
:101CD200840A0008B300840A0008B40003308312A7
:101CE2000313E100610883160313A3073208F0000F
:101CF2003308F1003408F2000030F3000030F40041
:101D02000030F5000A168A11EF200A128A1503180C
:101D12008B2E8C2EA52E831603133208F000330867
:101D2200F1003408F2000A168A15A9260A128A1549
:101D3200700883160313B2007108B3007208B4006E
:101D42000330A4040030A50483160313B001B101CB
:101D52003408330432040319AF2EB02EA22FB2304E
:101D620084008313000883120313E100840A00082D
:101D7200E200840A0008E300840A0008E4000F304D
:101D82000310E40CE30CE20CE10CFF3E031DC12E38
:101D9200FF306105E50000306205E6006508823E1D
:101DA20083160313B0008312031366080318013E5F
:101DB200FF3E83160313B100FF30B0070318B10AC8
:101DC200FF30B1070330F0000030F1003108F300BA
:101DD2003008F2000A168A1581270A128A1571083C
:101DE20083160313B1007008B0000A30F700003008
:101DF200F8003108FA003008F9000A168A11DA23CD
:101E02000A128A15780883160313B1007708B00006
:101E1200B11F0C2F0D2F132FFF30B0070318B10A7B
:101E2200FF30B1073003FF3A0A128A157D220A12E7
:101E32008A1583120313380883160313A80083122A
:101E42000313390883160313A900831203133A08F4
:101E520083160313AA00320883120313A800831601
:101E62000313330883120313A900831603133408E0
:101E720083120313AA008316031328088312031381
:101E8200AB0083160313290883120313AC008316D5
:101E920003132A0883120313AD000A168A11EF25D1
:101EA2000A128A1583120313280883160313A80043
:101EB20083120313290883160313A9008312031341
:101EC2002A0883160313AA002808F0002908F10043
:101ED2002A08F2000030F3008030F4003F30F500B1
:101EE2000A168A11EF200A128A150318792F7A2FFF
:101EF200832FFF3083160313B0070318B10AFF3094
:101F0200B107A22F831603132808F0002908F10055
:101F12002A08F2000030F3002030F4004130F500CE
:101F22000A168A11EF200A128A15031C992F9A2F7A
:101F3200A22F013083160313B0070318B10A003031
:101F4200B107831603133708803AFF0080307F02FF
:101F5200031DAD2F0D3036020318B02FB12FEA2F1B
:101F62008316031336080A128A15DC200A128A1510
:101F7200831203133808C8003908C9003A08CA0096
:101F820083160313320883120313CB008316031341
:101F9200330883120313CC0083160313340883120D
:101FA2000313CD000A128A1111200A128A15831214
:101FB2000313480883160313B2008312031349085C
:101FC20083160313B300831203134A088316031301
:101FD200B400831603133108803AFF0080307F0279
:101FE200031DF52F0A3030020318FA2F0A128A1144
:101FF20047290A128A117E290A128A11E62FFF1B2B
:102002000A2883137F1883170008840A0319FF0A1A
:10201200080010308A000408840A82070034003461
:1020220080343F340034203441340034C8344234E4
:1020320000347A34443440341C3446345034C3348B
:102042004734243474344934973418344B34BC3410
:10205200BE344C346B346E344E3403341534503445
:102062007934AD346034F33449347134003480341B
:102072003F34CD34CC343D34D73423343C34123461
:1020820083343A34B734D1343834C634273437340D
:10209200383486343534C034D6343334CC342B34EB
:1020A2003234703489343034E734DB342E34E5345E
:1020B2003C341E344234A2340D3401340034003432
:1020C20000340A3400340034003464340034003400
:1020D2000034E8340334003400341034273400343C
:1020E2000034A034863401340034403442340F3496
:1020F200003480349634983400340034E134F534BA
:1021020005340034CA349A343B34533431342034E5
:1021120020342034533432342034203420345334A5
:1021220033340034253432342E343134663420349E
:0621320025346434003482
:10213A00F30083120313091073080A168A119B21EC
:10214A000A168A11831203138914AB28AC280000DB
:10215A00831203138910B128B22800000330F20059
:10216A009730F100F10BB728F20BB728BC2808000A
:10217A008312031307110330F2009730F100F10BB9
:10218A00C428F20BC428C92801300A168A157926F0
:10219A000A168A110A168A1596260A168A11F10053
:1021AA00710883120313ED000330F2009730F10037
:1021BA00F10BDD28F20BDD28E22883120313071541
:1021CA000330F2009730F100F10BE928F20BE9280D
:1021DA00EE280800F21FF228F32800297008003CB4
:1021EA00F0007108031C710F003CF1007208031C17
:1021FA00720F803CF200F51F032904291129730884
:10220A00003CF3007408031C740F003CF4007508CA
:10221A00031C750F803CF5008030F2068030F5060D
:10222A0075087202031D1F2974087102031D1F29F4
:10223A007308700203182229232925290310262945
:10224A00031408008312031387100330FD0097302C
:10225A00FC00FC0B2E29FD0B2E29332901300A160E
:10226A008A1579260A168A110A168A1596260A16D0
:10227A008A110A168A151A270A168A1178088312E9
:10228A000313EA007908EB007A08EC000330FD003A
:10229A009730FC00FC0B4F29FD0B4F295429831260
:1022AA00031387140330FD009730FC00FC0B5B29F5
:1022BA00FD0B5B296029080070087104031966295F
:1022CA0067299629F501F50A752901300310F00DE1
:1022DA00F10DFF3E031D6B290130F4007408F50768
:1022EA00F11F782979296A2971087302031D7F2948
:1022FA0070087202031C8229832989297008F20254
:10230A007108031CF303F30201300310F10CF00C03
:10231A00FF3E031D8A290130F502031D95299629DE
:10232A0079297308F1007208F0000800F000701CA7
:10233A009F29A029A429831203130814A729831209
:10234A0003130810F01CAA29AB29AD298814AE2959
:10235A008810701DB129B229B4290815B5290811A8
:10236A00F01DB829B929BB298815BC298811701E06
:10237A00BF29C029C2290816C3290812F01EC62976
:10238A00C729C9298816CA298812701FCD29CE29BA
:10239A00D0290817D1290813F01FD429D529D729FC
:1023AA008817D82988130800F801F901FE29780846
:1023BA007307F6007408F5000318F50AF81FE629F2
:1023CA00F5037508F700770883120313FF007608F0
:1023DA0084000A168A1100200A168A110A168A151A
:1023EA00FE260A168A110130F8070318F90A003086
:1023FA00F90778087307F6007408F5000318F50A58
:10240A00F81F082AF5037508F700770883120313E3
:10241A00FF00760884000A168A1100200A168A111B
:10242A00003A031D192A1A2ADC290800FB01FC01BB
:10243A00760877040319222A232A5A2AFD01FD0A5B
:10244A00312A01300310F60DF70DFF3E031D272A2E
:10245A000130FA007A08FD07F71F342A352A262A9E
:10246A0001300310FB0DFC0DFF3E031D362A7708D1
:10247A007902031D422A76087802031C452A462A55
:10248A004D2A7608F8027708031CF903F9027B142F
:10249A0001300310F70CF60CFF3E031D4E2A0130E3
:1024AA00FD02031D592A5A2A352A7C08F7007B089F
:1024BA00F6000800831203132308220421042004CF
:1024CA000319682A692AAC2AA901A90A792A0130BA
:1024DA00A8000310A00DA10DA20DA30DA80B6E2A32
:1024EA000130A8002808A907A31F7C2A7D2A6C2A84
:1024FA0023082702031D8B2A22082602031D8B2A82
:10250A0021082502031D8B2A20082402031C8E2A77
:10251A008F2A9D2A2008A4022108031C210FA50244
:10252A002208031C220FA6022308031C230FA7025A
:10253A0001300310A30CA20CA10CA00CFF3E031D3A
:10254A009E2A0130A902031DAB2AAC2A7D2A27083C
:10255A00A3002608A2002508A1002408A00008005C
:10256A00F601F31FB92ABA2AC12AF209F309F20AB3
:10257A000319F30AF601F60AF11FC42AC52ACA2A60
:10258A00F009F109F00A0319F10A70087104031934
:10259A00CF2AD02AFF2AF501F50ADE2A01300310D4
:1025AA00F00DF10DFF3E031DD42A0130F40074082A
:1025BA00F507F11FE12AE22AD32A71087302031DE3
:1025CA00E82A70087202031CEB2AEC2AF22A700825
:1025DA00F2027108031CF303F30201300310F10C39
:1025EA00F00CFF3E031DF32A0130F502031DFE2AFB
:1025FA00FF2AE22A76080319032B042B092BF20976
:10260A00F309F20A0319F30A7308F1007208F000D9
:10261A0008001A30F500F830F400F40B122BF50B11
:10262A00122B000030300A168A119D200A168A11D0
:10263A000730F5007D30F400F40B212BF50B212B2C
:10264A0030300A168A119D200A168A112130F400A8
:10265A00F40B2D2B30300A168A119D200A168A1186
:10266A002130F400F40B372B38300A168A119D20DA
:10267A000A168A111330F400F40B412B442B08304C
:10268A000A168A119D200A168A111330F400F40BD7
:10269A004C2B4F2B01300A168A119D200A168A11DB
:1026AA000730F5007D30F400F40B592BF50B592B4C
:1026BA0006300A168A119D200A168A111330F40070
:1026CA00F40B652B682B0C300A168A119D200A160A
:1026DA008A111330F400F40B702B732B08000030AE
:1026EA00FC000030FB000030FA000030F9007308EB
:1026FA007204710470040319832B842BD12BFD01FE
:10270A00FD0A942B0130F8000310F00DF10DF20DC3
:10271A00F30DF80B892B0130F8007808FD07F31F39
:10272A00972B982B872B0130F8000310F90DFA0D1F
:10273A00FB0DFC0DF80B9A2B73087702031DAF2BC8
:10274A0072087602031DAF2B71087502031DAF2BA9
:10275A0070087402031CB22BB32BC22B7008F4024C
:10276A007108031C710FF5027208031C720FF6023E
:10277A007308031C730FF702791401300310F30C6A
:10278A00F20CF10CF00CFF3E031DC32B0130FD02CD
:10279A00031DD02BD12B982B7C08F3007B08F20069
:1027AA007A08F1007908F000080083120313A101E6
:1027BA00F81FE02BE12BE82BF709F809F70A0319B0
:1027CA00F80AA101A10AFA1FEB2BEC2BF52BF90948
:1027DA00FA09F90A0319FA0A0130FB007B08A10673
:1027EA00A201A301770878040319FC2BFD2B342CD2
:1027FA00A001A00A0B2C01300310F70DF80DFF3EC3
:10280A00031D012C0130FB007B08A007F81F0E2CCA
:10281A000F2C002C01300310A20DA30DFF3E031D47
:10282A00102C78087A02031D1C2C77087902031CE5
:10283A001F2C202C272C7708F9027808031CFA038E
:10284A00FA02221401300310F80CF70CFF3E031DA4
:10285A00282C0130A002031D332C342C0F2C210804
:10286A000319382C392C3E2CA209A309A20A0319F0
:10287A00A30A2308F8002208F700080073080319BE
:10288A00472C482C4F2C720871047004031D4E2CDF
:10289A004F2C622C0030F0000030F1000030F200C2
:1028AA00BE2C0130F5007508F30701300310F20C55
:1028BA00F10CF00CFF3E031D5B2CFE307205031D6C
:1028CA00672C682C562C7F2C0130F5007508F3070D
:1028DA000130F007003003180130F1070030031807
:1028EA000130F20701300310F20CF10CF00CFF3E3C
:1028FA00031D782CFF307205031D842C852C692C4E
:10290A00902C0130F30201300310F00DF10DF20D9D
:10291A00FF3E031D892CF11B932C942C9A2C023018
:10292A0073020318992C9A2C862C73189D2C9E2CB2
:10293A00A42CFF30F0057F30F105FF30F2050310BB
:10294A00F30C7308F500F601F70110300310F50DCA
:10295A00F60DF70DFF3E031DAB2C7508F004760843
:10296A00F1047708F20474080319BC2CBD2CBE2CA0
:10297A00F2170800831203134108C5004208C60073
:10298A004308C7000310460D470DC8004808CE008B
:10299A004E08031DD12CD22CDB2C0030C400003091
:1029AA00C3000030C2000030C1004A2D4108C500F2
:1029BA004208C6004308C70017300310C70CC60CEC
:1029CA00C50CFF3E031DE22C4508C8004808C90093
:1029DA00C217FF30C105FF30C2050030C3054108E8
:1029EA00CA004208CB004308CC00CD018E30CE028B
:1029FA00CE1F002D012D1B2D4E08803A8F3E031845
:102A0A00072D082D092DD22C01300310CD0CCC0C2A
:102A1A00CB0CCA0CFF3E031D0A2D0130C500450828
:102A2A00CE07031D192D1A2D092D322D18304E02ED
:102A3A00031C202D212D2D2DD22C0130C500031071
:102A4A00CA0DCB0DCC0DCD0DC50B242D0130CE02F8
:102A5A004E08031D312D322D222D49080319362D1A
:102A6A00372D422DCA09CB09CC09CD09CA0A031947
:102A7A00CB0A0319CC0A0319CD0A4D08C4004C0825
:102A8A00C3004B08C2004A08C10008000A128A158E
:102A9A0001200A168A110A168A1574260A168A113C
:102AAA000A168A159F260A168A110A168A15862672
:102ABA000A168A110A168A110E230A168A110A128E
:102ACA008A1104200A168A110A168A11BD200A16CA
:102ADA008A110A168A1127210A168A110A128A11DC
:102AEA0004200A168A11F401F40A01300A168A151A
:102AFA0038270A168A117730F3008030F4000A1654
:102B0A008A11D9210A168A11843083120313E70025
:102B1A006708DB006A08DC006B08DD006C08DE0071
:102B2A006D08E800E9016808DF006908E000B930CB
:102B3A000A128A1528250A168A11F401F40A0230A3
:102B4A000A168A1538270A168A11B930F300003096
:102B5A00F4000A168A11D9210A168A117730F1006F
:102B6A008030F2000A168A15A6270A168A110D3035
:102B7A000A168A15B3260A168A110A300A168A15FF
:102B8A00B3260A168A11B930F1000030F2000A168B
:102B9A008A15A6270A168A110D300A168A15B3262F
:102BAA000A168A110A300A168A15B3260A168A11D3
:102BBA00063083120313E9001330E800AD30E70052
:102BCA00E70BE52DE80BE52DE90BE52D692D0A123A
:102BDA008A110028831203132808AE002908AF00BF
:102BEA002A08B00003102F0D300DB1003108B200D1
:102BFA003208031D012E022E092E0030A8000030D3
:102C0A00A9000030AA00D32E2B08AE002C08AF0072
:102C1A002D08B00003102F0D300DB1003108B70098
:102C2A003708031D192E1A2E212E0030A800003055
:102C3A00A9000030AA00D32E37087B3EAE002E082A
:102C4A00B2072808AE002908AF002A08B0001030E1
:102C5A000310B00CAF0CAE0CFF3E031D2D2E2E0838
:102C6A00B1003108B7002B08AE002C08AF002D08C0
:102C7A00B00010300310B00CAF0CAE0CFF3E031DB9
:102C8A003F2E2E08B1003108B7068030AE002E085C
:102C9A00B705A917AC17FF30AB05FF30AC050030FC
:102CAA00AD050030B3000030B4000030B500073085
:102CBA00AE002E08B600281C632E642E742E2B0834
:102CCA00B3072C08031103182C0A03196D2EB40735
:102CDA002D08031103182D0A0319742EB5070130A4
:102CEA000310AA0CA90CA80CFF3E031D752E013077
:102CFA000310AB0DAC0DAD0DFF3E031D7D2E013053
:102D0A00B602031D892E8A2E602E0930AE002E08C7
:102D1A00B600281C912E922EA22E2B08B3072C083F
:102D2A00031103182C0A03199B2EB4072D0803114B
:102D3A0003182D0A0319A22EB50701300310AA0C95
:102D4A00A90CA80CFF3E031DA32E01300310B50CDD
:102D5A00B40CB30CFF3E031DAB2E0130B602031DAB
:102D6A00B72EB82E8E2E3308F0003408F10035083D
:102D7A00F2003208AE002E08F3003708AF002F0821
:102D8A00F4000A168A1143240A168A11700883125B
:102D9A000313A8007108A9007208AA00080070307D
:102DAA0084000008F600840A0008F700840A000874
:102DBA00F800840A0008F9000310780D790DFA006A
:102DCA007A0883120313A5002508031DED2EEE2EA3
:102DDA00F72E0030F3000030F2000030F10000302E
:102DEA00F000FF2F733084000008F600840A000800
:102DFA00F700840A0008F800840A0008F9000310A2
:102E0A00780D790DFA007A08A4002408031D0E2F04
:102E1A000F2F102FEE2E7030840000308004840AA9
:102E2A0000308004840A80308004840A00308004E0
:102E3A0070308400FF308005840AFF308005840AE0
:102E4A00FF308005840A003080057330840000302A
:102E5A008004840A00308004840A80308004840A52
:102E6A000030800473308400FF308005840AFF300C
:102E7A008005840AFF308005840A0030800500300E
:102E8A00A3000030A2000030A1000030A0007F3073
:102E9A00A502A0302407F6007608A5022030F60025
:102EAA007608A4000130F6000310A00DA10DA20DB2
:102EBA00A30DF60B592F733084000008F600840A1C
:102ECA000008F700840A0008F800840A0008F900DC
:102EDA00703084000008FA00840A0008FB00840AA3
:102EEA000008FC00840A0008FD0079087D02031D21
:102EFA00882F78087C02031D882F77087B02031D20
:102F0A00882F76087A02031C8B2F8C2FAF2F7330F1
:102F1A0084000008F600840A0008F700840A000802
:102F2A00F800840A0008F9007030840076088002EC
:102F3A00840A7708031C770F8002840A7808031C26
:102F4A00780F8002840A7908031C790A8002033008
:102F5A0084022014703084000310800D840A800DCE
:102F6A00840A800D840A800D84038403840301305B
:102F7A00A402031DC12FC22F572FA51FC52FC62F6D
:102F8A00E02F2508803A9F3E0318CC2FCD2FCE2F55
:102F9A00EE2E01300310A30CA20CA10CA00CFF3ED4
:102FAA00031DCF2F0130F6007608A507031DDE2F7B
:102FBA00DF2FCE2FF72F20302502031CE52FE62F17
:102FCA00F22FEE2E0130F6000310A00DA10DA20D76
:102FDA00A30DF60BE92F0130A5022508031DF62FD4
:102FEA00F72FE72F2308F3002208F2002108F10047
:062FFA002008F0000800B1
:103CE8000C308316031399000800F0007008831243
:103CF80003139300080083160313141C842E852EC7
:103D08007F2E080083120313981718139812181699
:103D18009A01080064008001840A0406031900342B
:103D280004068F2E0A168A157F260A168A1583120C
:103D3800031313080800831603139813181398160F
:103D480018121811981018100800720871047004DD
:103D58000319AF2EB02EB22E8030F2060800F00004
:103D680083160313981CB92EBA2EB42E700883122A
:103D7800031399000800F100F0013A3071020318AA
:103D8800C62EC72ECF2E30307102031CCC2ECD2E5E
:103D9800CF2EF001F00A700C0800F300831603130D
:103DA8008712731DD82ED92EDD2E72089400871520
:103DB800E12E70087204940087117308710483124D
:103DC80003139400080083120313A700A601271CFD
:103DD800EE2EEF2EF32E2408A5002508A6070310C3
:103DE800A40D0310A70C2708031DFB2EFC2EEB2E99
:103DF80026080800F20083120313091472080A1631
:103E08008A119B210A168A158312031389140C2F11
:103E18000D2F0000831203138910122F132F000097
:103E28001030F100F10B162F00000800FB007B0892
:103E380083120313A000A101A2012008F0002108A9
:103E4800F1002208F2008E30A3002308F300F401E9
:103E58000A168A1143240A168A157008F800710890
:103E6800F9007208FA000800F6007603031D3D2FDA
:103E78003E2F4A2F7408803EF5007508F700770832
:103E88000A168A119D200A168A155B2F02307606BB
:103E9800031D4F2F502F5B2F7408C03EF500750887
:103EA800F70077080A168A119D200A168A15080055
:103EB800831203135708560455040319642F652FFA
:103EC800672F8030D7065808C8005908C9005A0813
:103ED800CA005508CB005608CC005708CD000A1276
:103EE8008A1111200A168A15831203134808D5006F
:103EF8004908D6004A08D7000800F401F501701CEB
:103F0800862F872F8D2F7208F4070318F50A730878
:103F1800F50701300310F20DF30DFF3E031D8E2F40
:103F280001300310F10CF00CFF3E031D952F7008B3
:103F38007104031DA02FA12F832F7508F1007408A9
:103F4800F0000800F401BD2F74087107840072089E
:103F58000318720AFF000A168A1100200A168A1529
:103F68000A168A15B3260A168A150130F300730853
:103F7800F40774087107840072080318720A831220
:103F88000313FF000A168A1100200A168A15003A40
:103F9800031DCF2FD02FA82F08008E30FC007C08DF
:103FA800FD00E32F01300310FB0CFA0CF90CF80CA0
:103FB800FF3E031DD72F0130FC007C08FD07FF30B2
:103FC8007B05031DE82FE92FD62F7808F000790824
:103FD800F1007A08F2007D08FC007C08F300F40187
:103FE8000A168A1143240A168A157008F8007108FF
:083FF800F9007208FA0008004C
:04400E00D620FF3F7A
:00000001FF
