:020000040000FA
:060000000A128A11FB2F19
:100CD0000C308316031399000800F000700883128B
:100CE00003139300080083160313141C782E792E27
:100CF000732E0800831203139817181398121816EE
:100D00009A0108000A128A1173260A128A118312A4
:100D10000313130808008316031398131813981667
:100D20001812181198101810080000300A128A11B1
:100D3000B8260A128A1101300A128A11B8260A123C
:100D40008A110800F300831603138712731DA92E5E
:100D5000AA2EAE2E720894008715B22E7008720467
:100D60009400871173087104831203139400080020
:100D7000F30083120313091073080A128A1157270C
:100D80000A128A11831203138914C62EC72E00007B
:100D9000831203138910CC2ECD2E00000330F200F5
:100DA0009730F100F10BD22EF20BD22ED72E080085
:100DB00083160317880189018316031388018901AB
:100DC000831203138801890183160313860183129A
:100DD000031386018316031387100711831203136D
:100DE00007158714F001F101F20120300A128A116F
:100DF000A2260A128A1108000A128A11D8260A129B
:100E00008A110A128A1168260A128A110A128A1194
:100E10008B260A128A110A128A117A260A128A115C
:100E20000A128A1195270A128A110A128A11952626
:100E30000A128A110A128A1123270A128A111A2FFA
:100E40000A128A1100288312031307110330F200DB
:100E50009730F100F10B2A2FF20B2A2F2F2F0130A0
:100E60000A128A116D260A128A110A128A11822622
:100E70000A128A11F1007108F60076088312031332
:100E800086000330F2009730F100F10B452FF20B92
:100E9000452F4A2F8312031307150330F2009730B2
:100EA000F100F10B512FF20B512F562F0800F000DB
:100EB000701C5B2F5C2F602F831203130814632FA9
:100EC000831203130810F01C662F672F692F8814F4
:100ED0006A2F8810701D6D2F6E2F702F0815712FBF
:100EE0000811F01D742F752F772F8815782F881112
:100EF000701E7B2F7C2F7E2F08167F2F0812F01E6E
:100F0000822F832F852F8816862F8812701F892F96
:100F10008A2F8C2F08178D2F0813F01F902F912FD9
:100F2000932F8817942F881308001A30F500F83093
:100F3000F400F40B992FF50B992F000030300A12B2
:100F40008A11B8260A128A110730F5007D30F400A4
:100F5000F40BA82FF50BA82F30300A128A11B826EF
:100F60000A128A112130F400F40BB42F30300A1227
:100F70008A11B8260A128A112130F400F40BBE2F10
:100F800038300A128A11B8260A128A111330F40076
:100F9000F40BC82FCB2F08300A128A11B8260A1278
:100FA0008A111330F400F40BD32FD62F01300A121C
:100FB0008A11B8260A128A110730F5007D30F40034
:100FC000F40BE02FF50BE02F06300A128A11B82639
:100FD0000A128A111330F400F40BEC2FEF2F0C30AF
:100FE0000A128A11B8260A128A111330F400F40B7F
:100FF000F72FFA2F0800F60183010A128A11FC2E3E
:04400E00D620FF3F7A
:00000001FF
