:020000040000FA
:060000000A128A110C280F
:10000800FE00030EF1000A08F2000A128A118B287A
:100018000A128A110F28FA0183010A128A11142878
:100028000A128A1157200A128A118312031306181A
:100038001E281F2838280230F9000430F800BA308A
:10004800F700F70B2528F80B2528F90B25280000C1
:1000580083120313061C3128322838280130F70090
:100068007708FA077A08880086183B283C28192858
:100078000230F9000430F800BA30F700F70B4228D4
:10008800F80B4228F90B4228000083120313861C40
:100098004E284F2819280130FA027A0888001928B2
:1000A8000A128A110C288316031788018901033064
:1000B80083160313860088018312031386018801BF
:1000C8008B170B178C11831603138C158516F301E8
:1000D800F401F50124300A128A1175200A128A11D6
:1000E8000800F600831603138712761D7C287D28E6
:1000F800812875089400871585287308750494006D
:10010800871176087404831203139400080083127D
:1001180003138C1D902891289A287A080A128A11AC
:10012800A1200A128A11831203138C1172088A0003
:10013800710E8300FE0E7E0E0900F0007008831217
:0601480003139300080000
:04400E00D620FF3F7A
:00000001FF
