:020000040000FA
:060000000A128A110C280F
:10000800FE00030EF1000A08F2000A128A112E29D6
:100018000A128A110F28F80183010A128A11442949
:10002800F500831203131F083F3940389F008316D9
:1000380003139F01B9280514831603170814C33046
:10004800831203139F05ED2885148316031788145C
:10005800831203131F08C33904389F00ED280515C0
:10006800831603170815831203131F08C3390838AA
:100078009F00ED288515831603178815831203132F
:100088001F08C3390C389F00ED28851683160317FF
:100098000816831203131F08C33910389F00ED2870
:1000A8000914831603178816831203131F08C3390C
:1000B80014389F00ED288914831603170817831234
:1000C80003131F08C33918389F00ED280915831634
:1000D80003178817831203131F08C3391C389F009E
:1000E800ED280615831603170914831203131F0836
:1000F800C33920389F00ED28861583160317891405
:10010800831203131F08C33924389F00ED2886146F
:10011800831603170915831203131F08C3392838D8
:100128009F00ED28061683160317891583120313FB
:100138001F08C3392C389F00ED28061483160317AF
:100148000916831203131F08C33930389F00ED289E
:100158008616831603178916831203131F08C339DB
:1001680034389F00ED280030FD287508F300F401AD
:100178007408003A0319C128B7287308003A03190C
:100188001F28013A03192828033A03193328013A8A
:1001980003193E28073A03194928013A0319542834
:1001A800033A03195F28013A03196A280F3A031919
:1001B8007528013A03198028033A03198B28013A54
:1001C80003199628073A0319A128013A0319AC28FC
:1001D800B7281F14A630F300F30BF0280000831291
:1001E80003139F14F9281E08FD289F18FC28FD28D2
:1001F800F72808008316031788018901831603135B
:1002080086018B170B17831203138C1183160313A4
:100218008C158516F301F401F50124300A128A11B0
:1002280018210A128A110800F60083160313871290
:10023800761D1F2920292429750894008715282947
:1002480073087504940087117608740483120313E5
:1002580094000800831203138C1D332934293D2987
:1002680078080A128A1156210A128A118312031376
:100278008C1172088A00710E8300FE0E7E0E090032
:100288000A128A11FE200A128A1108300A128A11EB
:1002980014200A128A11F7007708F80049290A126F
:1002A8008A110C28F00070088312031393000800C9
:04400E00D620FF3F7A
:00000001FF
