:020000040000FA
:060000000A128A110E280D
:10000800FE00030E83120313A0000A08A1000A12BF
:100018008A11762B0A128A11112883120313C2013E
:10002800C301C401C50183010A128A11122B83126C
:100038000313A4001F083F3940389F008316031399
:100048009F01DC288316031305148316031708146D
:10005800C330831203139F051229831603138514D3
:10006800831603178814831203131F08C33904382F
:100078009F00122983160313051583160317081505
:10008800831203131F08C33908389F0012298316E7
:1000980003138515831603178815831203131F0886
:1000A800C3390C389F00122983160313851683164B
:1000B80003170816831203131F08C33910389F004B
:1000C800122983160313091483160317881683123B
:1000D80003131F08C33914389F001229831603130A
:1000E8008914831603170817831203131F08C339CB
:1000F80018389F001229831603130915831603174E
:100108008817831203131F08C3391C389F0012294C
:100118008316031306158316031709148312031392
:100128001F08C33920389F00122983160313861528
:10013800831603178914831203131F08C33924383D
:100148009F001229831603138614831603170915B3
:10015800831203131F08C33928389F0012298316F6
:1001680003130616831603178915831203131F0832
:10017800C3392C389F0012298316031306148316DB
:1001880003170916831203131F08C33930389F0059
:1001980012298316031386168316031789168312EA
:1001A80003131F08C33934389F001229003024294B
:1001B800831203132408A200A3012308003A031999
:1001C800E628DA282208003A03192628013A0319F2
:1001D8003128033A03193E28013A03194B28073AF4
:1001E80003195828013A03196528033A0319722894
:1001F800013A03197F280F3A03198C28013A031989
:100208009928033A0319A628013A0319B328073A8B
:100218000319C028013A0319CD28DA281F14A5307C
:1002280083120313A200A20B17291A29831203139E
:100238009F149F1C2029212922291D291F101E08CF
:100248000800831203133008B6003108B7003208DB
:10025800B8000310370D380DB9003908BA003A084C
:10026800031D372938293F290030B0000030B1007C
:100278000030B200092A3308B6003408B700350840
:10028800B8000310370D380DB9003908BF003F0812
:10029800031D4F29502957290030B0000030B10004
:1002A8000030B200092A3F087B3EB6003608BA077C
:1002B8003008B6003108B7003208B8001030031013
:1002C800B80CB70CB60CFF3E031D63293608B900FD
:1002D8003908BF003308B6003408B7003508B8003D
:1002E80010300310B80CB70CB60CFF3E031D75296F
:1002F8003608B9003908BF068030B6003608BF0591
:10030800B117B417FF30B305FF30B4050030B50599
:100318000030BB000030BC000030BD000730B60024
:100328003608BE00301C99299A29AA293308BB0728
:10033800340803110318340A0319A329BC07350824
:1003480003110318350A0319AA29BD070130031040
:10035800B20CB10CB00CFF3E031DAB2901300310E9
:10036800B30DB40DB50DFF3E031DB3290130BE0218
:10037800031DBF29C02996290930B6003608BE00DA
:10038800301CC729C829D8293308BB0734080311EA
:100398000318340A0319D129BC07350803110318B7
:1003A800350A0319D829BD0701300310B20CB10C66
:1003B800B00CFF3E031DD92901300310BD0CBC0C45
:1003C800BB0CFF3E031DE1290130BE02031DED29D0
:1003D800EE29C4293B08A2003C08A3003D08A4005C
:1003E8003A08B6003608A5003F08B7003708A60047
:1003F8000A128A1194220A128A11831203132208FC
:10040800B0002308B1002408B20008007008F40006
:100418007108F5007208F6000310750D760DF700E7
:100428007708FD007D08031D1A2A1B2A242A00309C
:10043800F3000030F2000030F1000030F000932AA1
:100448007008F4007108F5007208F6001730031000
:10045800F60CF50CF40CFF3E031D2B2A7408F7006C
:100468007708F800F117FF30F005FF30F10500308C
:10047800F2057008F9007108FA007208FB00FC0127
:100488008E30FD02FD1F492A4A2A642A7D08803AD7
:100498008F3E0318502A512A522A1B2A0130031072
:1004A800FC0CFB0CFA0CF90CFF3E031D532A01301F
:1004B800F4007408FD07031D622A632A522A7B2A66
:1004C80018307D02031C692A6A2A762A1B2A013001
:1004D800F4000310F90DFA0DFB0DFC0DF40B6D2A59
:1004E8000130FD027D08031D7A2A7B2A6B2A7808D1
:1004F80003197F2A802A8B2AF909FA09FB09FC09C2
:10050800F90A0319FA0A0319FB0A0319FC0A7C08F9
:10051800F3007B08F2007A08F1007908F00008007F
:1005280083120313250803199A2A9B2AA22A24084E
:1005380023042204031DA12AA22AB52A0030A200FE
:100548000030A3000030A400112B0130A7002708B9
:10055800A50701300310A40CA30CA20CFF3E031D39
:10056800AE2AFE302405031DBA2ABB2AA92AD22A9C
:100578000130A7002708A5070130A207003003189B
:100588000130A307003003180130A407013003101D
:10059800A40CA30CA20CFF3E031DCB2AFF3024059C
:1005A800031DD72AD82ABC2AE32A0130A502013024
:1005B8000310A20DA30DA40DFF3E031DDC2AA31BEF
:1005C800E62AE72AED2A023025020318EC2AED2A4A
:1005D800D92A2518F02AF12AF72AFF30A2057F30F8
:1005E800A305FF30A4050310A50C2508A700A80142
:1005F800A90110300310A70DA80DA90DFF3E031D7A
:10060800FE2A2708A2042808A3042908A404260807
:1006180003190F2B102B112BA41708000A128A118B
:10062800B3230A128A1100300A128A111B200A12F7
:100638008A1183120313C0004008C5009030B0002F
:10064800A030B1003C30B2004508C000C1014008EC
:10065800AA004108AB000A128A114D230A128A1116
:10066800831203132A08B3002B08B4002C08B50022
:100678000A128A1125210A128A11831203133008DB
:10068800C2003108C3003208C400172B0A128A11AD
:100698000E2883120313AF01AB1F532B542B5B2B74
:1006A800AA09AB09AA0A0319AB0AAF01AF0A2A08BB
:1006B800A2002B08A300A4018E30AD002D08A500D0
:1006C8002F08AE002E08A6000A128A1194220A12D8
:1006D8008A11831203132208AA002308AB002408F6
:1006E800AC0008008C1D792B7A2B8E2B4208F00069
:1006F8004308F1004408F2000A128A110A220A1279
:100708008A1170080A128A11CF230A128A118312D9
:1007180003138C1121088A00200E8300FE0E7E0E22
:10072800090083120313A50083160313871283128B
:100738000313251DA02BA12BA72B24088316031315
:1007480094008715AD2B2208240483160313940004
:1007580087118312031325082304940008008316C5
:100768000317880189018316031385018B170B175B
:10077800831203138C11831603138C1585168312A9
:100788000313A201A301A40124300A128A1195239C
:100798000A128A110800F0007008831203139300EC
:0207A800080047
:04400E00D620FF3F7A
:00000001FF
